{
  "_format": "hh-sol-artifact-1",
  "contractName": "PlaceHolder",
  "sourceName": "contracts/PHN.sol",
  "abi": [
    {
      "inputs": [],
      "stateMutability": "nonpayable",
      "type": "constructor"
    },
    {
      "anonymous": false,
      "inputs": [
        {
          "indexed": true,
          "internalType": "address",
          "name": "owner",
          "type": "address"
        },
        {
          "indexed": true,
          "internalType": "address",
          "name": "approved",
          "type": "address"
        },
        {
          "indexed": true,
          "internalType": "uint256",
          "name": "tokenId",
          "type": "uint256"
        }
      ],
      "name": "Approval",
      "type": "event"
    },
    {
      "anonymous": false,
      "inputs": [
        {
          "indexed": true,
          "internalType": "address",
          "name": "owner",
          "type": "address"
        },
        {
          "indexed": true,
          "internalType": "address",
          "name": "operator",
          "type": "address"
        },
        {
          "indexed": false,
          "internalType": "bool",
          "name": "approved",
          "type": "bool"
        }
      ],
      "name": "ApprovalForAll",
      "type": "event"
    },
    {
      "anonymous": false,
      "inputs": [
        {
          "indexed": true,
          "internalType": "address",
          "name": "previousOwner",
          "type": "address"
        },
        {
          "indexed": true,
          "internalType": "address",
          "name": "newOwner",
          "type": "address"
        }
      ],
      "name": "OwnershipTransferred",
      "type": "event"
    },
    {
      "anonymous": false,
      "inputs": [
        {
          "indexed": true,
          "internalType": "address",
          "name": "from",
          "type": "address"
        },
        {
          "indexed": true,
          "internalType": "address",
          "name": "to",
          "type": "address"
        },
        {
          "indexed": true,
          "internalType": "uint256",
          "name": "tokenId",
          "type": "uint256"
        }
      ],
      "name": "Transfer",
      "type": "event"
    },
    {
      "inputs": [
        {
          "internalType": "address",
          "name": "to",
          "type": "address"
        },
        {
          "internalType": "uint256",
          "name": "tokenId",
          "type": "uint256"
        }
      ],
      "name": "approve",
      "outputs": [],
      "stateMutability": "nonpayable",
      "type": "function"
    },
    {
      "inputs": [
        {
          "internalType": "address",
          "name": "owner",
          "type": "address"
        }
      ],
      "name": "balanceOf",
      "outputs": [
        {
          "internalType": "uint256",
          "name": "",
          "type": "uint256"
        }
      ],
      "stateMutability": "view",
      "type": "function"
    },
    {
      "inputs": [
        {
          "internalType": "uint256",
          "name": "tokenId",
          "type": "uint256"
        }
      ],
      "name": "getApproved",
      "outputs": [
        {
          "internalType": "address",
          "name": "",
          "type": "address"
        }
      ],
      "stateMutability": "view",
      "type": "function"
    },
    {
      "inputs": [
        {
          "internalType": "address",
          "name": "owner",
          "type": "address"
        },
        {
          "internalType": "address",
          "name": "operator",
          "type": "address"
        }
      ],
      "name": "isApprovedForAll",
      "outputs": [
        {
          "internalType": "bool",
          "name": "",
          "type": "bool"
        }
      ],
      "stateMutability": "view",
      "type": "function"
    },
    {
      "inputs": [],
      "name": "name",
      "outputs": [
        {
          "internalType": "string",
          "name": "",
          "type": "string"
        }
      ],
      "stateMutability": "view",
      "type": "function"
    },
    {
      "inputs": [],
      "name": "owner",
      "outputs": [
        {
          "internalType": "address",
          "name": "",
          "type": "address"
        }
      ],
      "stateMutability": "view",
      "type": "function"
    },
    {
      "inputs": [
        {
          "internalType": "uint256",
          "name": "tokenId",
          "type": "uint256"
        }
      ],
      "name": "ownerOf",
      "outputs": [
        {
          "internalType": "address",
          "name": "",
          "type": "address"
        }
      ],
      "stateMutability": "view",
      "type": "function"
    },
    {
      "inputs": [],
      "name": "renounceOwnership",
      "outputs": [],
      "stateMutability": "nonpayable",
      "type": "function"
    },
    {
      "inputs": [],
      "name": "safeMint",
      "outputs": [],
      "stateMutability": "nonpayable",
      "type": "function"
    },
    {
      "inputs": [
        {
          "internalType": "address",
          "name": "from",
          "type": "address"
        },
        {
          "internalType": "address",
          "name": "to",
          "type": "address"
        },
        {
          "internalType": "uint256",
          "name": "tokenId",
          "type": "uint256"
        }
      ],
      "name": "safeTransferFrom",
      "outputs": [],
      "stateMutability": "nonpayable",
      "type": "function"
    },
    {
      "inputs": [
        {
          "internalType": "address",
          "name": "from",
          "type": "address"
        },
        {
          "internalType": "address",
          "name": "to",
          "type": "address"
        },
        {
          "internalType": "uint256",
          "name": "tokenId",
          "type": "uint256"
        },
        {
          "internalType": "bytes",
          "name": "_data",
          "type": "bytes"
        }
      ],
      "name": "safeTransferFrom",
      "outputs": [],
      "stateMutability": "nonpayable",
      "type": "function"
    },
    {
      "inputs": [
        {
          "internalType": "address",
          "name": "operator",
          "type": "address"
        },
        {
          "internalType": "bool",
          "name": "approved",
          "type": "bool"
        }
      ],
      "name": "setApprovalForAll",
      "outputs": [],
      "stateMutability": "nonpayable",
      "type": "function"
    },
    {
      "inputs": [
        {
          "internalType": "bytes4",
          "name": "interfaceId",
          "type": "bytes4"
        }
      ],
      "name": "supportsInterface",
      "outputs": [
        {
          "internalType": "bool",
          "name": "",
          "type": "bool"
        }
      ],
      "stateMutability": "view",
      "type": "function"
    },
    {
      "inputs": [],
      "name": "symbol",
      "outputs": [
        {
          "internalType": "string",
          "name": "",
          "type": "string"
        }
      ],
      "stateMutability": "view",
      "type": "function"
    },
    {
      "inputs": [
        {
          "internalType": "uint256",
          "name": "index",
          "type": "uint256"
        }
      ],
      "name": "tokenByIndex",
      "outputs": [
        {
          "internalType": "uint256",
          "name": "",
          "type": "uint256"
        }
      ],
      "stateMutability": "view",
      "type": "function"
    },
    {
      "inputs": [
        {
          "internalType": "address",
          "name": "owner",
          "type": "address"
        },
        {
          "internalType": "uint256",
          "name": "index",
          "type": "uint256"
        }
      ],
      "name": "tokenOfOwnerByIndex",
      "outputs": [
        {
          "internalType": "uint256",
          "name": "",
          "type": "uint256"
        }
      ],
      "stateMutability": "view",
      "type": "function"
    },
    {
      "inputs": [
        {
          "internalType": "uint256",
          "name": "tokenId",
          "type": "uint256"
        }
      ],
      "name": "tokenURI",
      "outputs": [
        {
          "internalType": "string",
          "name": "",
          "type": "string"
        }
      ],
      "stateMutability": "view",
      "type": "function"
    },
    {
      "inputs": [],
      "name": "totalSupply",
      "outputs": [
        {
          "internalType": "uint256",
          "name": "",
          "type": "uint256"
        }
      ],
      "stateMutability": "view",
      "type": "function"
    },
    {
      "inputs": [
        {
          "internalType": "address",
          "name": "from",
          "type": "address"
        },
        {
          "internalType": "address",
          "name": "to",
          "type": "address"
        },
        {
          "internalType": "uint256",
          "name": "tokenId",
          "type": "uint256"
        }
      ],
      "name": "transferFrom",
      "outputs": [],
      "stateMutability": "nonpayable",
      "type": "function"
    },
    {
      "inputs": [
        {
          "internalType": "address",
          "name": "newOwner",
          "type": "address"
        }
      ],
      "name": "transferOwnership",
      "outputs": [],
      "stateMutability": "nonpayable",
      "type": "function"
    }
  ],
  "bytecode": "0x60806040523480156200001157600080fd5b506040518060400160405280600b81526020017f506c616365486f6c6465720000000000000000000000000000000000000000008152506040518060400160405280600381526020017f5048440000000000000000000000000000000000000000000000000000000000815250816000908051906020019062000096929190620001a6565b508060019080519060200190620000af929190620001a6565b505050620000d2620000c6620000d860201b60201c565b620000e060201b60201c565b620002bb565b600033905090565b6000600a60009054906101000a900473ffffffffffffffffffffffffffffffffffffffff16905081600a60006101000a81548173ffffffffffffffffffffffffffffffffffffffff021916908373ffffffffffffffffffffffffffffffffffffffff1602179055508173ffffffffffffffffffffffffffffffffffffffff168173ffffffffffffffffffffffffffffffffffffffff167f8be0079c531659141344cd1fd0a4f28419497f9722a3daafe3b4186f6b6457e060405160405180910390a35050565b828054620001b49062000256565b90600052602060002090601f016020900481019282620001d8576000855562000224565b82601f10620001f357805160ff191683800117855562000224565b8280016001018555821562000224579182015b828111156200022357825182559160200191906001019062000206565b5b50905062000233919062000237565b5090565b5b808211156200025257600081600090555060010162000238565b5090565b600060028204905060018216806200026f57607f821691505b602082108114156200028657620002856200028c565b5b50919050565b7f4e487b7100000000000000000000000000000000000000000000000000000000600052602260045260246000fd5b61336780620002cb6000396000f3fe608060405234801561001057600080fd5b506004361061012c5760003560e01c80636871ee40116100ad578063a22cb46511610071578063a22cb46514610331578063b88d4fde1461034d578063c87b56dd14610369578063e985e9c514610399578063f2fde38b146103c95761012c565b80636871ee40146102b157806370a08231146102bb578063715018a6146102eb5780638da5cb5b146102f557806395d89b41146103135761012c565b806323b872dd116100f457806323b872dd146101e95780632f745c591461020557806342842e0e146102355780634f6ccce7146102515780636352211e146102815761012c565b806301ffc9a71461013157806306fdde0314610161578063081812fc1461017f578063095ea7b3146101af57806318160ddd146101cb575b600080fd5b61014b60048036038101906101469190612347565b6103e5565b6040516101589190612793565b60405180910390f35b6101696103f7565b60405161017691906127ae565b60405180910390f35b61019960048036038101906101949190612399565b610489565b6040516101a6919061272c565b60405180910390f35b6101c960048036038101906101c4919061230b565b61050e565b005b6101d3610626565b6040516101e09190612a10565b60405180910390f35b61020360048036038101906101fe9190612205565b610633565b005b61021f600480360381019061021a919061230b565b610693565b60405161022c9190612a10565b60405180910390f35b61024f600480360381019061024a9190612205565b610738565b005b61026b60048036038101906102669190612399565b610758565b6040516102789190612a10565b60405180910390f35b61029b60048036038101906102969190612399565b6107ef565b6040516102a8919061272c565b60405180910390f35b6102b96108a1565b005b6102d560048036038101906102d091906121a0565b6108c6565b6040516102e29190612a10565b60405180910390f35b6102f361097e565b005b6102fd610a06565b60405161030a919061272c565b60405180910390f35b61031b610a30565b60405161032891906127ae565b60405180910390f35b61034b600480360381019061034691906122cf565b610ac2565b005b61036760048036038101906103629190612254565b610ad8565b005b610383600480360381019061037e9190612399565b610b3a565b60405161039091906127ae565b60405180910390f35b6103b360048036038101906103ae91906121c9565b610be1565b6040516103c09190612793565b60405180910390f35b6103e360048036038101906103de91906121a0565b610c75565b005b60006103f082610d6d565b9050919050565b60606000805461040690612c35565b80601f016020809104026020016040519081016040528092919081815260200182805461043290612c35565b801561047f5780601f106104545761010080835404028352916020019161047f565b820191906000526020600020905b81548152906001019060200180831161046257829003601f168201915b5050505050905090565b600061049482610de7565b6104d3576040517f08c379a00000000000000000000000000000000000000000000000000000000081526004016104ca90612950565b60405180910390fd5b6004600083815260200190815260200160002060009054906101000a900473ffffffffffffffffffffffffffffffffffffffff169050919050565b6000610519826107ef565b90508073ffffffffffffffffffffffffffffffffffffffff168373ffffffffffffffffffffffffffffffffffffffff16141561058a576040517f08c379a0000000000000000000000000000000000000000000000000000000008152600401610581906129b0565b60405180910390fd5b8073ffffffffffffffffffffffffffffffffffffffff166105a9610e53565b73ffffffffffffffffffffffffffffffffffffffff1614806105d857506105d7816105d2610e53565b610be1565b5b610617576040517f08c379a000000000000000000000000000000000000000000000000000000000815260040161060e906128d0565b60405180910390fd5b6106218383610e5b565b505050565b6000600880549050905090565b61064461063e610e53565b82610f14565b610683576040517f08c379a000000000000000000000000000000000000000000000000000000000815260040161067a906129d0565b60405180910390fd5b61068e838383610ff2565b505050565b600061069e836108c6565b82106106df576040517f08c379a00000000000000000000000000000000000000000000000000000000081526004016106d6906127d0565b60405180910390fd5b600660008473ffffffffffffffffffffffffffffffffffffffff1673ffffffffffffffffffffffffffffffffffffffff168152602001908152602001600020600083815260200190815260200160002054905092915050565b61075383838360405180602001604052806000815250610ad8565b505050565b6000610762610626565b82106107a3576040517f08c379a000000000000000000000000000000000000000000000000000000000815260040161079a906129f0565b60405180910390fd5b600882815481106107dd577f4e487b7100000000000000000000000000000000000000000000000000000000600052603260045260246000fd5b90600052602060002001549050919050565b6000806002600084815260200190815260200160002060009054906101000a900473ffffffffffffffffffffffffffffffffffffffff169050600073ffffffffffffffffffffffffffffffffffffffff168173ffffffffffffffffffffffffffffffffffffffff161415610898576040517f08c379a000000000000000000000000000000000000000000000000000000000815260040161088f90612910565b60405180910390fd5b80915050919050565b6108ab600b611259565b60006108b7600b61126f565b90506108c3338261127d565b50565b60008073ffffffffffffffffffffffffffffffffffffffff168273ffffffffffffffffffffffffffffffffffffffff161415610937576040517f08c379a000000000000000000000000000000000000000000000000000000000815260040161092e906128f0565b60405180910390fd5b600360008373ffffffffffffffffffffffffffffffffffffffff1673ffffffffffffffffffffffffffffffffffffffff168152602001908152602001600020549050919050565b610986610e53565b73ffffffffffffffffffffffffffffffffffffffff166109a4610a06565b73ffffffffffffffffffffffffffffffffffffffff16146109fa576040517f08c379a00000000000000000000000000000000000000000000000000000000081526004016109f190612970565b60405180910390fd5b610a04600061129b565b565b6000600a60009054906101000a900473ffffffffffffffffffffffffffffffffffffffff16905090565b606060018054610a3f90612c35565b80601f0160208091040260200160405190810160405280929190818152602001828054610a6b90612c35565b8015610ab85780601f10610a8d57610100808354040283529160200191610ab8565b820191906000526020600020905b815481529060010190602001808311610a9b57829003601f168201915b5050505050905090565b610ad4610acd610e53565b8383611361565b5050565b610ae9610ae3610e53565b83610f14565b610b28576040517f08c379a0000000000000000000000000000000000000000000000000000000008152600401610b1f906129d0565b60405180910390fd5b610b34848484846114ce565b50505050565b6060610b4582610de7565b610b84576040517f08c379a0000000000000000000000000000000000000000000000000000000008152600401610b7b90612990565b60405180910390fd5b6000610b8e61152a565b90506000815111610bae5760405180602001604052806000815250610bd9565b80610bb884611541565b604051602001610bc9929190612708565b6040516020818303038152906040525b915050919050565b6000600560008473ffffffffffffffffffffffffffffffffffffffff1673ffffffffffffffffffffffffffffffffffffffff16815260200190815260200160002060008373ffffffffffffffffffffffffffffffffffffffff1673ffffffffffffffffffffffffffffffffffffffff16815260200190815260200160002060009054906101000a900460ff16905092915050565b610c7d610e53565b73ffffffffffffffffffffffffffffffffffffffff16610c9b610a06565b73ffffffffffffffffffffffffffffffffffffffff1614610cf1576040517f08c379a0000000000000000000000000000000000000000000000000000000008152600401610ce890612970565b60405180910390fd5b600073ffffffffffffffffffffffffffffffffffffffff168173ffffffffffffffffffffffffffffffffffffffff161415610d61576040517f08c379a0000000000000000000000000000000000000000000000000000000008152600401610d5890612810565b60405180910390fd5b610d6a8161129b565b50565b60007f780e9d63000000000000000000000000000000000000000000000000000000007bffffffffffffffffffffffffffffffffffffffffffffffffffffffff1916827bffffffffffffffffffffffffffffffffffffffffffffffffffffffff19161480610de05750610ddf826116ee565b5b9050919050565b60008073ffffffffffffffffffffffffffffffffffffffff166002600084815260200190815260200160002060009054906101000a900473ffffffffffffffffffffffffffffffffffffffff1673ffffffffffffffffffffffffffffffffffffffff1614159050919050565b600033905090565b816004600083815260200190815260200160002060006101000a81548173ffffffffffffffffffffffffffffffffffffffff021916908373ffffffffffffffffffffffffffffffffffffffff160217905550808273ffffffffffffffffffffffffffffffffffffffff16610ece836107ef565b73ffffffffffffffffffffffffffffffffffffffff167f8c5be1e5ebec7d5bd14f71427d1e84f3dd0314c0f7b2291e5b200ac8c7c3b92560405160405180910390a45050565b6000610f1f82610de7565b610f5e576040517f08c379a0000000000000000000000000000000000000000000000000000000008152600401610f55906128b0565b60405180910390fd5b6000610f69836107ef565b90508073ffffffffffffffffffffffffffffffffffffffff168473ffffffffffffffffffffffffffffffffffffffff161480610fd857508373ffffffffffffffffffffffffffffffffffffffff16610fc084610489565b73ffffffffffffffffffffffffffffffffffffffff16145b80610fe95750610fe88185610be1565b5b91505092915050565b8273ffffffffffffffffffffffffffffffffffffffff16611012826107ef565b73ffffffffffffffffffffffffffffffffffffffff1614611068576040517f08c379a000000000000000000000000000000000000000000000000000000000815260040161105f90612830565b60405180910390fd5b600073ffffffffffffffffffffffffffffffffffffffff168273ffffffffffffffffffffffffffffffffffffffff1614156110d8576040517f08c379a00000000000000000000000000000000000000000000000000000000081526004016110cf90612870565b60405180910390fd5b6110e38383836117d0565b6110ee600082610e5b565b6001600360008573ffffffffffffffffffffffffffffffffffffffff1673ffffffffffffffffffffffffffffffffffffffff168152602001908152602001600020600082825461113e9190612b4b565b925050819055506001600360008473ffffffffffffffffffffffffffffffffffffffff1673ffffffffffffffffffffffffffffffffffffffff16815260200190815260200160002060008282546111959190612ac4565b92505081905550816002600083815260200190815260200160002060006101000a81548173ffffffffffffffffffffffffffffffffffffffff021916908373ffffffffffffffffffffffffffffffffffffffff160217905550808273ffffffffffffffffffffffffffffffffffffffff168473ffffffffffffffffffffffffffffffffffffffff167fddf252ad1be2c89b69c2b068fc378daa952ba7f163c4a11628f55a4df523b3ef60405160405180910390a46112548383836117e0565b505050565b6001816000016000828254019250508190555050565b600081600001549050919050565b6112978282604051806020016040528060008152506117e5565b5050565b6000600a60009054906101000a900473ffffffffffffffffffffffffffffffffffffffff16905081600a60006101000a81548173ffffffffffffffffffffffffffffffffffffffff021916908373ffffffffffffffffffffffffffffffffffffffff1602179055508173ffffffffffffffffffffffffffffffffffffffff168173ffffffffffffffffffffffffffffffffffffffff167f8be0079c531659141344cd1fd0a4f28419497f9722a3daafe3b4186f6b6457e060405160405180910390a35050565b8173ffffffffffffffffffffffffffffffffffffffff168373ffffffffffffffffffffffffffffffffffffffff1614156113d0576040517f08c379a00000000000000000000000000000000000000000000000000000000081526004016113c790612890565b60405180910390fd5b80600560008573ffffffffffffffffffffffffffffffffffffffff1673ffffffffffffffffffffffffffffffffffffffff16815260200190815260200160002060008473ffffffffffffffffffffffffffffffffffffffff1673ffffffffffffffffffffffffffffffffffffffff16815260200190815260200160002060006101000a81548160ff0219169083151502179055508173ffffffffffffffffffffffffffffffffffffffff168373ffffffffffffffffffffffffffffffffffffffff167f17307eab39ab6107e8899845ad3d59bd9653f200f220920489ca2b5937696c31836040516114c19190612793565b60405180910390a3505050565b6114d9848484610ff2565b6114e584848484611840565b611524576040517f08c379a000000000000000000000000000000000000000000000000000000000815260040161151b906127f0565b60405180910390fd5b50505050565b606060405180602001604052806000815250905090565b60606000821415611589576040518060400160405280600181526020017f300000000000000000000000000000000000000000000000000000000000000081525090506116e9565b600082905060005b600082146115bb5780806115a490612c98565b915050600a826115b49190612b1a565b9150611591565b60008167ffffffffffffffff8111156115fd577f4e487b7100000000000000000000000000000000000000000000000000000000600052604160045260246000fd5b6040519080825280601f01601f19166020018201604052801561162f5781602001600182028036833780820191505090505b5090505b600085146116e2576001826116489190612b4b565b9150600a856116579190612ce1565b60306116639190612ac4565b60f81b81838151811061169f577f4e487b7100000000000000000000000000000000000000000000000000000000600052603260045260246000fd5b60200101907effffffffffffffffffffffffffffffffffffffffffffffffffffffffffffff1916908160001a905350600a856116db9190612b1a565b9450611633565b8093505050505b919050565b60007f80ac58cd000000000000000000000000000000000000000000000000000000007bffffffffffffffffffffffffffffffffffffffffffffffffffffffff1916827bffffffffffffffffffffffffffffffffffffffffffffffffffffffff191614806117b957507f5b5e139f000000000000000000000000000000000000000000000000000000007bffffffffffffffffffffffffffffffffffffffffffffffffffffffff1916827bffffffffffffffffffffffffffffffffffffffffffffffffffffffff1916145b806117c957506117c8826119d7565b5b9050919050565b6117db838383611a41565b505050565b505050565b6117ef8383611b55565b6117fc6000848484611840565b61183b576040517f08c379a0000000000000000000000000000000000000000000000000000000008152600401611832906127f0565b60405180910390fd5b505050565b60006118618473ffffffffffffffffffffffffffffffffffffffff16611d2f565b156119ca578373ffffffffffffffffffffffffffffffffffffffff1663150b7a0261188a610e53565b8786866040518563ffffffff1660e01b81526004016118ac9493929190612747565b602060405180830381600087803b1580156118c657600080fd5b505af19250505080156118f757506040513d601f19601f820116820180604052508101906118f49190612370565b60015b61197a573d8060008114611927576040519150601f19603f3d011682016040523d82523d6000602084013e61192c565b606091505b50600081511415611972576040517f08c379a0000000000000000000000000000000000000000000000000000000008152600401611969906127f0565b60405180910390fd5b805181602001fd5b63150b7a0260e01b7bffffffffffffffffffffffffffffffffffffffffffffffffffffffff1916817bffffffffffffffffffffffffffffffffffffffffffffffffffffffff1916149150506119cf565b600190505b949350505050565b60007f01ffc9a7000000000000000000000000000000000000000000000000000000007bffffffffffffffffffffffffffffffffffffffffffffffffffffffff1916827bffffffffffffffffffffffffffffffffffffffffffffffffffffffff1916149050919050565b611a4c838383611d52565b600073ffffffffffffffffffffffffffffffffffffffff168373ffffffffffffffffffffffffffffffffffffffff161415611a8f57611a8a81611d57565b611ace565b8173ffffffffffffffffffffffffffffffffffffffff168373ffffffffffffffffffffffffffffffffffffffff1614611acd57611acc8382611da0565b5b5b600073ffffffffffffffffffffffffffffffffffffffff168273ffffffffffffffffffffffffffffffffffffffff161415611b1157611b0c81611f0d565b611b50565b8273ffffffffffffffffffffffffffffffffffffffff168273ffffffffffffffffffffffffffffffffffffffff1614611b4f57611b4e8282612050565b5b5b505050565b600073ffffffffffffffffffffffffffffffffffffffff168273ffffffffffffffffffffffffffffffffffffffff161415611bc5576040517f08c379a0000000000000000000000000000000000000000000000000000000008152600401611bbc90612930565b60405180910390fd5b611bce81610de7565b15611c0e576040517f08c379a0000000000000000000000000000000000000000000000000000000008152600401611c0590612850565b60405180910390fd5b611c1a600083836117d0565b6001600360008473ffffffffffffffffffffffffffffffffffffffff1673ffffffffffffffffffffffffffffffffffffffff1681526020019081526020016000206000828254611c6a9190612ac4565b92505081905550816002600083815260200190815260200160002060006101000a81548173ffffffffffffffffffffffffffffffffffffffff021916908373ffffffffffffffffffffffffffffffffffffffff160217905550808273ffffffffffffffffffffffffffffffffffffffff16600073ffffffffffffffffffffffffffffffffffffffff167fddf252ad1be2c89b69c2b068fc378daa952ba7f163c4a11628f55a4df523b3ef60405160405180910390a4611d2b600083836117e0565b5050565b6000808273ffffffffffffffffffffffffffffffffffffffff163b119050919050565b505050565b6008805490506009600083815260200190815260200160002081905550600881908060018154018082558091505060019003906000526020600020016000909190919091505550565b60006001611dad846108c6565b611db79190612b4b565b9050600060076000848152602001908152602001600020549050818114611e9c576000600660008673ffffffffffffffffffffffffffffffffffffffff1673ffffffffffffffffffffffffffffffffffffffff168152602001908152602001600020600084815260200190815260200160002054905080600660008773ffffffffffffffffffffffffffffffffffffffff1673ffffffffffffffffffffffffffffffffffffffff168152602001908152602001600020600084815260200190815260200160002081905550816007600083815260200190815260200160002081905550505b6007600084815260200190815260200160002060009055600660008573ffffffffffffffffffffffffffffffffffffffff1673ffffffffffffffffffffffffffffffffffffffff16815260200190815260200160002060008381526020019081526020016000206000905550505050565b60006001600880549050611f219190612b4b565b9050600060096000848152602001908152602001600020549050600060088381548110611f77577f4e487b7100000000000000000000000000000000000000000000000000000000600052603260045260246000fd5b906000526020600020015490508060088381548110611fbf577f4e487b7100000000000000000000000000000000000000000000000000000000600052603260045260246000fd5b906000526020600020018190555081600960008381526020019081526020016000208190555060096000858152602001908152602001600020600090556008805480612034577f4e487b7100000000000000000000000000000000000000000000000000000000600052603160045260246000fd5b6001900381819060005260206000200160009055905550505050565b600061205b836108c6565b905081600660008573ffffffffffffffffffffffffffffffffffffffff1673ffffffffffffffffffffffffffffffffffffffff168152602001908152602001600020600083815260200190815260200160002081905550806007600084815260200190815260200160002081905550505050565b60006120e26120dd84612a50565b612a2b565b9050828152602081018484840111156120fa57600080fd5b612105848285612bf3565b509392505050565b60008135905061211c816132d5565b92915050565b600081359050612131816132ec565b92915050565b60008135905061214681613303565b92915050565b60008151905061215b81613303565b92915050565b600082601f83011261217257600080fd5b81356121828482602086016120cf565b91505092915050565b60008135905061219a8161331a565b92915050565b6000602082840312156121b257600080fd5b60006121c08482850161210d565b91505092915050565b600080604083850312156121dc57600080fd5b60006121ea8582860161210d565b92505060206121fb8582860161210d565b9150509250929050565b60008060006060848603121561221a57600080fd5b60006122288682870161210d565b93505060206122398682870161210d565b925050604061224a8682870161218b565b9150509250925092565b6000806000806080858703121561226a57600080fd5b60006122788782880161210d565b94505060206122898782880161210d565b935050604061229a8782880161218b565b925050606085013567ffffffffffffffff8111156122b757600080fd5b6122c387828801612161565b91505092959194509250565b600080604083850312156122e257600080fd5b60006122f08582860161210d565b925050602061230185828601612122565b9150509250929050565b6000806040838503121561231e57600080fd5b600061232c8582860161210d565b925050602061233d8582860161218b565b9150509250929050565b60006020828403121561235957600080fd5b600061236784828501612137565b91505092915050565b60006020828403121561238257600080fd5b60006123908482850161214c565b91505092915050565b6000602082840312156123ab57600080fd5b60006123b98482850161218b565b91505092915050565b6123cb81612b7f565b82525050565b6123da81612b91565b82525050565b60006123eb82612a81565b6123f58185612a97565b9350612405818560208601612c02565b61240e81612dce565b840191505092915050565b600061242482612a8c565b61242e8185612aa8565b935061243e818560208601612c02565b61244781612dce565b840191505092915050565b600061245d82612a8c565b6124678185612ab9565b9350612477818560208601612c02565b80840191505092915050565b6000612490602b83612aa8565b915061249b82612ddf565b604082019050919050565b60006124b3603283612aa8565b91506124be82612e2e565b604082019050919050565b60006124d6602683612aa8565b91506124e182612e7d565b604082019050919050565b60006124f9602583612aa8565b915061250482612ecc565b604082019050919050565b600061251c601c83612aa8565b915061252782612f1b565b602082019050919050565b600061253f602483612aa8565b915061254a82612f44565b604082019050919050565b6000612562601983612aa8565b915061256d82612f93565b602082019050919050565b6000612585602c83612aa8565b915061259082612fbc565b604082019050919050565b60006125a8603883612aa8565b91506125b38261300b565b604082019050919050565b60006125cb602a83612aa8565b91506125d68261305a565b604082019050919050565b60006125ee602983612aa8565b91506125f9826130a9565b604082019050919050565b6000612611602083612aa8565b915061261c826130f8565b602082019050919050565b6000612634602c83612aa8565b915061263f82613121565b604082019050919050565b6000612657602083612aa8565b915061266282613170565b602082019050919050565b600061267a602f83612aa8565b915061268582613199565b604082019050919050565b600061269d602183612aa8565b91506126a8826131e8565b604082019050919050565b60006126c0603183612aa8565b91506126cb82613237565b604082019050919050565b60006126e3602c83612aa8565b91506126ee82613286565b604082019050919050565b61270281612be9565b82525050565b60006127148285612452565b91506127208284612452565b91508190509392505050565b600060208201905061274160008301846123c2565b92915050565b600060808201905061275c60008301876123c2565b61276960208301866123c2565b61277660408301856126f9565b818103606083015261278881846123e0565b905095945050505050565b60006020820190506127a860008301846123d1565b92915050565b600060208201905081810360008301526127c88184612419565b905092915050565b600060208201905081810360008301526127e981612483565b9050919050565b60006020820190508181036000830152612809816124a6565b9050919050565b60006020820190508181036000830152612829816124c9565b9050919050565b60006020820190508181036000830152612849816124ec565b9050919050565b600060208201905081810360008301526128698161250f565b9050919050565b6000602082019050818103600083015261288981612532565b9050919050565b600060208201905081810360008301526128a981612555565b9050919050565b600060208201905081810360008301526128c981612578565b9050919050565b600060208201905081810360008301526128e98161259b565b9050919050565b60006020820190508181036000830152612909816125be565b9050919050565b60006020820190508181036000830152612929816125e1565b9050919050565b6000602082019050818103600083015261294981612604565b9050919050565b6000602082019050818103600083015261296981612627565b9050919050565b600060208201905081810360008301526129898161264a565b9050919050565b600060208201905081810360008301526129a98161266d565b9050919050565b600060208201905081810360008301526129c981612690565b9050919050565b600060208201905081810360008301526129e9816126b3565b9050919050565b60006020820190508181036000830152612a09816126d6565b9050919050565b6000602082019050612a2560008301846126f9565b92915050565b6000612a35612a46565b9050612a418282612c67565b919050565b6000604051905090565b600067ffffffffffffffff821115612a6b57612a6a612d9f565b5b612a7482612dce565b9050602081019050919050565b600081519050919050565b600081519050919050565b600082825260208201905092915050565b600082825260208201905092915050565b600081905092915050565b6000612acf82612be9565b9150612ada83612be9565b9250827fffffffffffffffffffffffffffffffffffffffffffffffffffffffffffffffff03821115612b0f57612b0e612d12565b5b828201905092915050565b6000612b2582612be9565b9150612b3083612be9565b925082612b4057612b3f612d41565b5b828204905092915050565b6000612b5682612be9565b9150612b6183612be9565b925082821015612b7457612b73612d12565b5b828203905092915050565b6000612b8a82612bc9565b9050919050565b60008115159050919050565b60007fffffffff0000000000000000000000000000000000000000000000000000000082169050919050565b600073ffffffffffffffffffffffffffffffffffffffff82169050919050565b6000819050919050565b82818337600083830152505050565b60005b83811015612c20578082015181840152602081019050612c05565b83811115612c2f576000848401525b50505050565b60006002820490506001821680612c4d57607f821691505b60208210811415612c6157612c60612d70565b5b50919050565b612c7082612dce565b810181811067ffffffffffffffff82111715612c8f57612c8e612d9f565b5b80604052505050565b6000612ca382612be9565b91507fffffffffffffffffffffffffffffffffffffffffffffffffffffffffffffffff821415612cd657612cd5612d12565b5b600182019050919050565b6000612cec82612be9565b9150612cf783612be9565b925082612d0757612d06612d41565b5b828206905092915050565b7f4e487b7100000000000000000000000000000000000000000000000000000000600052601160045260246000fd5b7f4e487b7100000000000000000000000000000000000000000000000000000000600052601260045260246000fd5b7f4e487b7100000000000000000000000000000000000000000000000000000000600052602260045260246000fd5b7f4e487b7100000000000000000000000000000000000000000000000000000000600052604160045260246000fd5b6000601f19601f8301169050919050565b7f455243373231456e756d657261626c653a206f776e657220696e646578206f7560008201527f74206f6620626f756e6473000000000000000000000000000000000000000000602082015250565b7f4552433732313a207472616e7366657220746f206e6f6e20455243373231526560008201527f63656976657220696d706c656d656e7465720000000000000000000000000000602082015250565b7f4f776e61626c653a206e6577206f776e657220697320746865207a65726f206160008201527f6464726573730000000000000000000000000000000000000000000000000000602082015250565b7f4552433732313a207472616e736665722066726f6d20696e636f72726563742060008201527f6f776e6572000000000000000000000000000000000000000000000000000000602082015250565b7f4552433732313a20746f6b656e20616c7265616479206d696e74656400000000600082015250565b7f4552433732313a207472616e7366657220746f20746865207a65726f2061646460008201527f7265737300000000000000000000000000000000000000000000000000000000602082015250565b7f4552433732313a20617070726f766520746f2063616c6c657200000000000000600082015250565b7f4552433732313a206f70657261746f7220717565727920666f72206e6f6e657860008201527f697374656e7420746f6b656e0000000000000000000000000000000000000000602082015250565b7f4552433732313a20617070726f76652063616c6c6572206973206e6f74206f7760008201527f6e6572206e6f7220617070726f76656420666f7220616c6c0000000000000000602082015250565b7f4552433732313a2062616c616e636520717565727920666f7220746865207a6560008201527f726f206164647265737300000000000000000000000000000000000000000000602082015250565b7f4552433732313a206f776e657220717565727920666f72206e6f6e657869737460008201527f656e7420746f6b656e0000000000000000000000000000000000000000000000602082015250565b7f4552433732313a206d696e7420746f20746865207a65726f2061646472657373600082015250565b7f4552433732313a20617070726f76656420717565727920666f72206e6f6e657860008201527f697374656e7420746f6b656e0000000000000000000000000000000000000000602082015250565b7f4f776e61626c653a2063616c6c6572206973206e6f7420746865206f776e6572600082015250565b7f4552433732314d657461646174613a2055524920717565727920666f72206e6f60008201527f6e6578697374656e7420746f6b656e0000000000000000000000000000000000602082015250565b7f4552433732313a20617070726f76616c20746f2063757272656e74206f776e6560008201527f7200000000000000000000000000000000000000000000000000000000000000602082015250565b7f4552433732313a207472616e736665722063616c6c6572206973206e6f74206f60008201527f776e6572206e6f7220617070726f766564000000000000000000000000000000602082015250565b7f455243373231456e756d657261626c653a20676c6f62616c20696e646578206f60008201527f7574206f6620626f756e64730000000000000000000000000000000000000000602082015250565b6132de81612b7f565b81146132e957600080fd5b50565b6132f581612b91565b811461330057600080fd5b50565b61330c81612b9d565b811461331757600080fd5b50565b61332381612be9565b811461332e57600080fd5b5056fea2646970667358221220404d88d855dc6f8526837e15fc980334cc57e8c9bf31b8aa7e59950eb39b81f364736f6c63430008040033",
  "linkReferences": {},
  "deployedLinkReferences": {}
}