{
  "_format": "hh-sol-artifact-1",
  "contractName": "FantomBulls",
  "sourceName": "contracts/FantomBulls.sol",
  "abi": [
    {
      "inputs": [],
      "stateMutability": "nonpayable",
      "type": "constructor"
    },
    {
      "anonymous": false,
      "inputs": [
        {
          "indexed": true,
          "internalType": "address",
          "name": "owner",
          "type": "address"
        },
        {
          "indexed": true,
          "internalType": "address",
          "name": "approved",
          "type": "address"
        },
        {
          "indexed": true,
          "internalType": "uint256",
          "name": "tokenId",
          "type": "uint256"
        }
      ],
      "name": "Approval",
      "type": "event"
    },
    {
      "anonymous": false,
      "inputs": [
        {
          "indexed": true,
          "internalType": "address",
          "name": "owner",
          "type": "address"
        },
        {
          "indexed": true,
          "internalType": "address",
          "name": "operator",
          "type": "address"
        },
        {
          "indexed": false,
          "internalType": "bool",
          "name": "approved",
          "type": "bool"
        }
      ],
      "name": "ApprovalForAll",
      "type": "event"
    },
    {
      "anonymous": false,
      "inputs": [
        {
          "indexed": true,
          "internalType": "address",
          "name": "previousOwner",
          "type": "address"
        },
        {
          "indexed": true,
          "internalType": "address",
          "name": "newOwner",
          "type": "address"
        }
      ],
      "name": "OwnershipTransferred",
      "type": "event"
    },
    {
      "anonymous": false,
      "inputs": [
        {
          "indexed": true,
          "internalType": "address",
          "name": "from",
          "type": "address"
        },
        {
          "indexed": true,
          "internalType": "address",
          "name": "to",
          "type": "address"
        },
        {
          "indexed": true,
          "internalType": "uint256",
          "name": "tokenId",
          "type": "uint256"
        }
      ],
      "name": "Transfer",
      "type": "event"
    },
    {
      "inputs": [
        {
          "internalType": "address",
          "name": "to",
          "type": "address"
        },
        {
          "internalType": "uint256",
          "name": "tokenId",
          "type": "uint256"
        }
      ],
      "name": "approve",
      "outputs": [],
      "stateMutability": "nonpayable",
      "type": "function"
    },
    {
      "inputs": [
        {
          "internalType": "address",
          "name": "owner",
          "type": "address"
        }
      ],
      "name": "balanceOf",
      "outputs": [
        {
          "internalType": "uint256",
          "name": "",
          "type": "uint256"
        }
      ],
      "stateMutability": "view",
      "type": "function"
    },
    {
      "inputs": [
        {
          "internalType": "uint256",
          "name": "tokenId",
          "type": "uint256"
        }
      ],
      "name": "getApproved",
      "outputs": [
        {
          "internalType": "address",
          "name": "",
          "type": "address"
        }
      ],
      "stateMutability": "view",
      "type": "function"
    },
    {
      "inputs": [
        {
          "internalType": "address",
          "name": "owner",
          "type": "address"
        },
        {
          "internalType": "address",
          "name": "operator",
          "type": "address"
        }
      ],
      "name": "isApprovedForAll",
      "outputs": [
        {
          "internalType": "bool",
          "name": "",
          "type": "bool"
        }
      ],
      "stateMutability": "view",
      "type": "function"
    },
    {
      "inputs": [],
      "name": "name",
      "outputs": [
        {
          "internalType": "string",
          "name": "",
          "type": "string"
        }
      ],
      "stateMutability": "view",
      "type": "function"
    },
    {
      "inputs": [],
      "name": "owner",
      "outputs": [
        {
          "internalType": "address",
          "name": "",
          "type": "address"
        }
      ],
      "stateMutability": "view",
      "type": "function"
    },
    {
      "inputs": [
        {
          "internalType": "uint256",
          "name": "tokenId",
          "type": "uint256"
        }
      ],
      "name": "ownerOf",
      "outputs": [
        {
          "internalType": "address",
          "name": "",
          "type": "address"
        }
      ],
      "stateMutability": "view",
      "type": "function"
    },
    {
      "inputs": [],
      "name": "renounceOwnership",
      "outputs": [],
      "stateMutability": "nonpayable",
      "type": "function"
    },
    {
      "inputs": [
        {
          "internalType": "uint256",
          "name": "count",
          "type": "uint256"
        }
      ],
      "name": "safeMint",
      "outputs": [],
      "stateMutability": "payable",
      "type": "function"
    },
    {
      "inputs": [
        {
          "internalType": "address",
          "name": "from",
          "type": "address"
        },
        {
          "internalType": "address",
          "name": "to",
          "type": "address"
        },
        {
          "internalType": "uint256",
          "name": "tokenId",
          "type": "uint256"
        }
      ],
      "name": "safeTransferFrom",
      "outputs": [],
      "stateMutability": "nonpayable",
      "type": "function"
    },
    {
      "inputs": [
        {
          "internalType": "address",
          "name": "from",
          "type": "address"
        },
        {
          "internalType": "address",
          "name": "to",
          "type": "address"
        },
        {
          "internalType": "uint256",
          "name": "tokenId",
          "type": "uint256"
        },
        {
          "internalType": "bytes",
          "name": "_data",
          "type": "bytes"
        }
      ],
      "name": "safeTransferFrom",
      "outputs": [],
      "stateMutability": "nonpayable",
      "type": "function"
    },
    {
      "inputs": [
        {
          "internalType": "address",
          "name": "operator",
          "type": "address"
        },
        {
          "internalType": "bool",
          "name": "approved",
          "type": "bool"
        }
      ],
      "name": "setApprovalForAll",
      "outputs": [],
      "stateMutability": "nonpayable",
      "type": "function"
    },
    {
      "inputs": [
        {
          "internalType": "bytes4",
          "name": "interfaceId",
          "type": "bytes4"
        }
      ],
      "name": "supportsInterface",
      "outputs": [
        {
          "internalType": "bool",
          "name": "",
          "type": "bool"
        }
      ],
      "stateMutability": "view",
      "type": "function"
    },
    {
      "inputs": [],
      "name": "symbol",
      "outputs": [
        {
          "internalType": "string",
          "name": "",
          "type": "string"
        }
      ],
      "stateMutability": "view",
      "type": "function"
    },
    {
      "inputs": [
        {
          "internalType": "uint256",
          "name": "index",
          "type": "uint256"
        }
      ],
      "name": "tokenByIndex",
      "outputs": [
        {
          "internalType": "uint256",
          "name": "",
          "type": "uint256"
        }
      ],
      "stateMutability": "view",
      "type": "function"
    },
    {
      "inputs": [
        {
          "internalType": "address",
          "name": "owner",
          "type": "address"
        },
        {
          "internalType": "uint256",
          "name": "index",
          "type": "uint256"
        }
      ],
      "name": "tokenOfOwnerByIndex",
      "outputs": [
        {
          "internalType": "uint256",
          "name": "",
          "type": "uint256"
        }
      ],
      "stateMutability": "view",
      "type": "function"
    },
    {
      "inputs": [
        {
          "internalType": "uint256",
          "name": "tokenId",
          "type": "uint256"
        }
      ],
      "name": "tokenURI",
      "outputs": [
        {
          "internalType": "string",
          "name": "",
          "type": "string"
        }
      ],
      "stateMutability": "view",
      "type": "function"
    },
    {
      "inputs": [],
      "name": "totalSupply",
      "outputs": [
        {
          "internalType": "uint256",
          "name": "",
          "type": "uint256"
        }
      ],
      "stateMutability": "view",
      "type": "function"
    },
    {
      "inputs": [
        {
          "internalType": "address",
          "name": "from",
          "type": "address"
        },
        {
          "internalType": "address",
          "name": "to",
          "type": "address"
        },
        {
          "internalType": "uint256",
          "name": "tokenId",
          "type": "uint256"
        }
      ],
      "name": "transferFrom",
      "outputs": [],
      "stateMutability": "nonpayable",
      "type": "function"
    },
    {
      "inputs": [
        {
          "internalType": "address",
          "name": "newOwner",
          "type": "address"
        }
      ],
      "name": "transferOwnership",
      "outputs": [],
      "stateMutability": "nonpayable",
      "type": "function"
    }
  ],
  "bytecode": "0x6080604052678ac7230489e80000600b553480156200001d57600080fd5b506040518060400160405280600b81526020017f46616e746f6d42756c6c730000000000000000000000000000000000000000008152506040518060400160405280600481526020017f42554c4c000000000000000000000000000000000000000000000000000000008152508160009080519060200190620000a2929190620001b2565b508060019080519060200190620000bb929190620001b2565b505050620000de620000d2620000e460201b60201c565b620000ec60201b60201c565b620002c7565b600033905090565b6000600a60009054906101000a900473ffffffffffffffffffffffffffffffffffffffff16905081600a60006101000a81548173ffffffffffffffffffffffffffffffffffffffff021916908373ffffffffffffffffffffffffffffffffffffffff1602179055508173ffffffffffffffffffffffffffffffffffffffff168173ffffffffffffffffffffffffffffffffffffffff167f8be0079c531659141344cd1fd0a4f28419497f9722a3daafe3b4186f6b6457e060405160405180910390a35050565b828054620001c09062000262565b90600052602060002090601f016020900481019282620001e4576000855562000230565b82601f10620001ff57805160ff191683800117855562000230565b8280016001018555821562000230579182015b828111156200022f57825182559160200191906001019062000212565b5b5090506200023f919062000243565b5090565b5b808211156200025e57600081600090555060010162000244565b5090565b600060028204905060018216806200027b57607f821691505b6020821081141562000292576200029162000298565b5b50919050565b7f4e487b7100000000000000000000000000000000000000000000000000000000600052602260045260246000fd5b6135a380620002d76000396000f3fe60806040526004361061011f5760003560e01c80636352211e116100a0578063a22cb46511610064578063a22cb465146103ec578063b88d4fde14610415578063c87b56dd1461043e578063e985e9c51461047b578063f2fde38b146104b85761011f565b80636352211e1461030557806370a0823114610342578063715018a61461037f5780638da5cb5b1461039657806395d89b41146103c15761011f565b806323b872dd116100e757806323b872dd1461021d5780632f745c591461024657806331c864e81461028357806342842e0e1461029f5780634f6ccce7146102c85761011f565b806301ffc9a71461012457806306fdde0314610161578063081812fc1461018c578063095ea7b3146101c957806318160ddd146101f2575b600080fd5b34801561013057600080fd5b5061014b600480360381019061014691906124bd565b6104e1565b604051610158919061292c565b60405180910390f35b34801561016d57600080fd5b506101766104f3565b6040516101839190612947565b60405180910390f35b34801561019857600080fd5b506101b360048036038101906101ae919061250f565b610585565b6040516101c091906128c5565b60405180910390f35b3480156101d557600080fd5b506101f060048036038101906101eb9190612481565b61060a565b005b3480156101fe57600080fd5b50610207610722565b6040516102149190612bc9565b60405180910390f35b34801561022957600080fd5b50610244600480360381019061023f919061237b565b61072f565b005b34801561025257600080fd5b5061026d60048036038101906102689190612481565b61078f565b60405161027a9190612bc9565b60405180910390f35b61029d6004803603810190610298919061250f565b610834565b005b3480156102ab57600080fd5b506102c660048036038101906102c1919061237b565b6108d3565b005b3480156102d457600080fd5b506102ef60048036038101906102ea919061250f565b6108f3565b6040516102fc9190612bc9565b60405180910390f35b34801561031157600080fd5b5061032c6004803603810190610327919061250f565b61098a565b60405161033991906128c5565b60405180910390f35b34801561034e57600080fd5b5061036960048036038101906103649190612316565b610a3c565b6040516103769190612bc9565b60405180910390f35b34801561038b57600080fd5b50610394610af4565b005b3480156103a257600080fd5b506103ab610b7c565b6040516103b891906128c5565b60405180910390f35b3480156103cd57600080fd5b506103d6610ba6565b6040516103e39190612947565b60405180910390f35b3480156103f857600080fd5b50610413600480360381019061040e9190612445565b610c38565b005b34801561042157600080fd5b5061043c600480360381019061043791906123ca565b610c4e565b005b34801561044a57600080fd5b506104656004803603810190610460919061250f565b610cb0565b6040516104729190612947565b60405180910390f35b34801561048757600080fd5b506104a2600480360381019061049d919061233f565b610d57565b6040516104af919061292c565b60405180910390f35b3480156104c457600080fd5b506104df60048036038101906104da9190612316565b610deb565b005b60006104ec82610ee3565b9050919050565b60606000805461050290612e48565b80601f016020809104026020016040519081016040528092919081815260200182805461052e90612e48565b801561057b5780601f106105505761010080835404028352916020019161057b565b820191906000526020600020905b81548152906001019060200180831161055e57829003601f168201915b5050505050905090565b600061059082610f5d565b6105cf576040517f08c379a00000000000000000000000000000000000000000000000000000000081526004016105c690612b09565b60405180910390fd5b6004600083815260200190815260200160002060009054906101000a900473ffffffffffffffffffffffffffffffffffffffff169050919050565b60006106158261098a565b90508073ffffffffffffffffffffffffffffffffffffffff168373ffffffffffffffffffffffffffffffffffffffff161415610686576040517f08c379a000000000000000000000000000000000000000000000000000000000815260040161067d90612b69565b60405180910390fd5b8073ffffffffffffffffffffffffffffffffffffffff166106a5610fc9565b73ffffffffffffffffffffffffffffffffffffffff1614806106d457506106d3816106ce610fc9565b610d57565b5b610713576040517f08c379a000000000000000000000000000000000000000000000000000000000815260040161070a90612a89565b60405180910390fd5b61071d8383610fd1565b505050565b6000600880549050905090565b61074061073a610fc9565b8261108a565b61077f576040517f08c379a000000000000000000000000000000000000000000000000000000000815260040161077690612b89565b60405180910390fd5b61078a838383611168565b505050565b600061079a83610a3c565b82106107db576040517f08c379a00000000000000000000000000000000000000000000000000000000081526004016107d290612989565b60405180910390fd5b600660008473ffffffffffffffffffffffffffffffffffffffff1673ffffffffffffffffffffffffffffffffffffffff168152602001908152602001600020600083815260200190815260200160002054905092915050565b80600b546108429190612d04565b813461084e9190612d04565b1061088e576040517f08c379a000000000000000000000000000000000000000000000000000000000815260040161088590612969565b60405180910390fd5b60005b818110156108cf576108a3600c6113cf565b60006108af600c6113e5565b90506108bb33826113f3565b5080806108c790612eab565b915050610891565b5050565b6108ee83838360405180602001604052806000815250610c4e565b505050565b60006108fd610722565b821061093e576040517f08c379a000000000000000000000000000000000000000000000000000000000815260040161093590612ba9565b60405180910390fd5b60088281548110610978577f4e487b7100000000000000000000000000000000000000000000000000000000600052603260045260246000fd5b90600052602060002001549050919050565b6000806002600084815260200190815260200160002060009054906101000a900473ffffffffffffffffffffffffffffffffffffffff169050600073ffffffffffffffffffffffffffffffffffffffff168173ffffffffffffffffffffffffffffffffffffffff161415610a33576040517f08c379a0000000000000000000000000000000000000000000000000000000008152600401610a2a90612ac9565b60405180910390fd5b80915050919050565b60008073ffffffffffffffffffffffffffffffffffffffff168273ffffffffffffffffffffffffffffffffffffffff161415610aad576040517f08c379a0000000000000000000000000000000000000000000000000000000008152600401610aa490612aa9565b60405180910390fd5b600360008373ffffffffffffffffffffffffffffffffffffffff1673ffffffffffffffffffffffffffffffffffffffff168152602001908152602001600020549050919050565b610afc610fc9565b73ffffffffffffffffffffffffffffffffffffffff16610b1a610b7c565b73ffffffffffffffffffffffffffffffffffffffff1614610b70576040517f08c379a0000000000000000000000000000000000000000000000000000000008152600401610b6790612b29565b60405180910390fd5b610b7a6000611411565b565b6000600a60009054906101000a900473ffffffffffffffffffffffffffffffffffffffff16905090565b606060018054610bb590612e48565b80601f0160208091040260200160405190810160405280929190818152602001828054610be190612e48565b8015610c2e5780601f10610c0357610100808354040283529160200191610c2e565b820191906000526020600020905b815481529060010190602001808311610c1157829003601f168201915b5050505050905090565b610c4a610c43610fc9565b83836114d7565b5050565b610c5f610c59610fc9565b8361108a565b610c9e576040517f08c379a0000000000000000000000000000000000000000000000000000000008152600401610c9590612b89565b60405180910390fd5b610caa84848484611644565b50505050565b6060610cbb82610f5d565b610cfa576040517f08c379a0000000000000000000000000000000000000000000000000000000008152600401610cf190612b49565b60405180910390fd5b6000610d046116a0565b90506000815111610d245760405180602001604052806000815250610d4f565b80610d2e846116b7565b604051602001610d3f9291906128a1565b6040516020818303038152906040525b915050919050565b6000600560008473ffffffffffffffffffffffffffffffffffffffff1673ffffffffffffffffffffffffffffffffffffffff16815260200190815260200160002060008373ffffffffffffffffffffffffffffffffffffffff1673ffffffffffffffffffffffffffffffffffffffff16815260200190815260200160002060009054906101000a900460ff16905092915050565b610df3610fc9565b73ffffffffffffffffffffffffffffffffffffffff16610e11610b7c565b73ffffffffffffffffffffffffffffffffffffffff1614610e67576040517f08c379a0000000000000000000000000000000000000000000000000000000008152600401610e5e90612b29565b60405180910390fd5b600073ffffffffffffffffffffffffffffffffffffffff168173ffffffffffffffffffffffffffffffffffffffff161415610ed7576040517f08c379a0000000000000000000000000000000000000000000000000000000008152600401610ece906129c9565b60405180910390fd5b610ee081611411565b50565b60007f780e9d63000000000000000000000000000000000000000000000000000000007bffffffffffffffffffffffffffffffffffffffffffffffffffffffff1916827bffffffffffffffffffffffffffffffffffffffffffffffffffffffff19161480610f565750610f5582611864565b5b9050919050565b60008073ffffffffffffffffffffffffffffffffffffffff166002600084815260200190815260200160002060009054906101000a900473ffffffffffffffffffffffffffffffffffffffff1673ffffffffffffffffffffffffffffffffffffffff1614159050919050565b600033905090565b816004600083815260200190815260200160002060006101000a81548173ffffffffffffffffffffffffffffffffffffffff021916908373ffffffffffffffffffffffffffffffffffffffff160217905550808273ffffffffffffffffffffffffffffffffffffffff166110448361098a565b73ffffffffffffffffffffffffffffffffffffffff167f8c5be1e5ebec7d5bd14f71427d1e84f3dd0314c0f7b2291e5b200ac8c7c3b92560405160405180910390a45050565b600061109582610f5d565b6110d4576040517f08c379a00000000000000000000000000000000000000000000000000000000081526004016110cb90612a69565b60405180910390fd5b60006110df8361098a565b90508073ffffffffffffffffffffffffffffffffffffffff168473ffffffffffffffffffffffffffffffffffffffff16148061114e57508373ffffffffffffffffffffffffffffffffffffffff1661113684610585565b73ffffffffffffffffffffffffffffffffffffffff16145b8061115f575061115e8185610d57565b5b91505092915050565b8273ffffffffffffffffffffffffffffffffffffffff166111888261098a565b73ffffffffffffffffffffffffffffffffffffffff16146111de576040517f08c379a00000000000000000000000000000000000000000000000000000000081526004016111d5906129e9565b60405180910390fd5b600073ffffffffffffffffffffffffffffffffffffffff168273ffffffffffffffffffffffffffffffffffffffff16141561124e576040517f08c379a000000000000000000000000000000000000000000000000000000000815260040161124590612a29565b60405180910390fd5b611259838383611946565b611264600082610fd1565b6001600360008573ffffffffffffffffffffffffffffffffffffffff1673ffffffffffffffffffffffffffffffffffffffff16815260200190815260200160002060008282546112b49190612d5e565b925050819055506001600360008473ffffffffffffffffffffffffffffffffffffffff1673ffffffffffffffffffffffffffffffffffffffff168152602001908152602001600020600082825461130b9190612c7d565b92505081905550816002600083815260200190815260200160002060006101000a81548173ffffffffffffffffffffffffffffffffffffffff021916908373ffffffffffffffffffffffffffffffffffffffff160217905550808273ffffffffffffffffffffffffffffffffffffffff168473ffffffffffffffffffffffffffffffffffffffff167fddf252ad1be2c89b69c2b068fc378daa952ba7f163c4a11628f55a4df523b3ef60405160405180910390a46113ca838383611956565b505050565b6001816000016000828254019250508190555050565b600081600001549050919050565b61140d82826040518060200160405280600081525061195b565b5050565b6000600a60009054906101000a900473ffffffffffffffffffffffffffffffffffffffff16905081600a60006101000a81548173ffffffffffffffffffffffffffffffffffffffff021916908373ffffffffffffffffffffffffffffffffffffffff1602179055508173ffffffffffffffffffffffffffffffffffffffff168173ffffffffffffffffffffffffffffffffffffffff167f8be0079c531659141344cd1fd0a4f28419497f9722a3daafe3b4186f6b6457e060405160405180910390a35050565b8173ffffffffffffffffffffffffffffffffffffffff168373ffffffffffffffffffffffffffffffffffffffff161415611546576040517f08c379a000000000000000000000000000000000000000000000000000000000815260040161153d90612a49565b60405180910390fd5b80600560008573ffffffffffffffffffffffffffffffffffffffff1673ffffffffffffffffffffffffffffffffffffffff16815260200190815260200160002060008473ffffffffffffffffffffffffffffffffffffffff1673ffffffffffffffffffffffffffffffffffffffff16815260200190815260200160002060006101000a81548160ff0219169083151502179055508173ffffffffffffffffffffffffffffffffffffffff168373ffffffffffffffffffffffffffffffffffffffff167f17307eab39ab6107e8899845ad3d59bd9653f200f220920489ca2b5937696c3183604051611637919061292c565b60405180910390a3505050565b61164f848484611168565b61165b848484846119b6565b61169a576040517f08c379a0000000000000000000000000000000000000000000000000000000008152600401611691906129a9565b60405180910390fd5b50505050565b606060405180602001604052806000815250905090565b606060008214156116ff576040518060400160405280600181526020017f3000000000000000000000000000000000000000000000000000000000000000815250905061185f565b600082905060005b6000821461173157808061171a90612eab565b915050600a8261172a9190612cd3565b9150611707565b60008167ffffffffffffffff811115611773577f4e487b7100000000000000000000000000000000000000000000000000000000600052604160045260246000fd5b6040519080825280601f01601f1916602001820160405280156117a55781602001600182028036833780820191505090505b5090505b60008514611858576001826117be9190612d5e565b9150600a856117cd9190612ef4565b60306117d99190612c7d565b60f81b818381518110611815577f4e487b7100000000000000000000000000000000000000000000000000000000600052603260045260246000fd5b60200101907effffffffffffffffffffffffffffffffffffffffffffffffffffffffffffff1916908160001a905350600a856118519190612cd3565b94506117a9565b8093505050505b919050565b60007f80ac58cd000000000000000000000000000000000000000000000000000000007bffffffffffffffffffffffffffffffffffffffffffffffffffffffff1916827bffffffffffffffffffffffffffffffffffffffffffffffffffffffff1916148061192f57507f5b5e139f000000000000000000000000000000000000000000000000000000007bffffffffffffffffffffffffffffffffffffffffffffffffffffffff1916827bffffffffffffffffffffffffffffffffffffffffffffffffffffffff1916145b8061193f575061193e82611b4d565b5b9050919050565b611951838383611bb7565b505050565b505050565b6119658383611ccb565b61197260008484846119b6565b6119b1576040517f08c379a00000000000000000000000000000000000000000000000000000000081526004016119a8906129a9565b60405180910390fd5b505050565b60006119d78473ffffffffffffffffffffffffffffffffffffffff16611ea5565b15611b40578373ffffffffffffffffffffffffffffffffffffffff1663150b7a02611a00610fc9565b8786866040518563ffffffff1660e01b8152600401611a2294939291906128e0565b602060405180830381600087803b158015611a3c57600080fd5b505af1925050508015611a6d57506040513d601f19601f82011682018060405250810190611a6a91906124e6565b60015b611af0573d8060008114611a9d576040519150601f19603f3d011682016040523d82523d6000602084013e611aa2565b606091505b50600081511415611ae8576040517f08c379a0000000000000000000000000000000000000000000000000000000008152600401611adf906129a9565b60405180910390fd5b805181602001fd5b63150b7a0260e01b7bffffffffffffffffffffffffffffffffffffffffffffffffffffffff1916817bffffffffffffffffffffffffffffffffffffffffffffffffffffffff191614915050611b45565b600190505b949350505050565b60007f01ffc9a7000000000000000000000000000000000000000000000000000000007bffffffffffffffffffffffffffffffffffffffffffffffffffffffff1916827bffffffffffffffffffffffffffffffffffffffffffffffffffffffff1916149050919050565b611bc2838383611ec8565b600073ffffffffffffffffffffffffffffffffffffffff168373ffffffffffffffffffffffffffffffffffffffff161415611c0557611c0081611ecd565b611c44565b8173ffffffffffffffffffffffffffffffffffffffff168373ffffffffffffffffffffffffffffffffffffffff1614611c4357611c428382611f16565b5b5b600073ffffffffffffffffffffffffffffffffffffffff168273ffffffffffffffffffffffffffffffffffffffff161415611c8757611c8281612083565b611cc6565b8273ffffffffffffffffffffffffffffffffffffffff168273ffffffffffffffffffffffffffffffffffffffff1614611cc557611cc482826121c6565b5b5b505050565b600073ffffffffffffffffffffffffffffffffffffffff168273ffffffffffffffffffffffffffffffffffffffff161415611d3b576040517f08c379a0000000000000000000000000000000000000000000000000000000008152600401611d3290612ae9565b60405180910390fd5b611d4481610f5d565b15611d84576040517f08c379a0000000000000000000000000000000000000000000000000000000008152600401611d7b90612a09565b60405180910390fd5b611d9060008383611946565b6001600360008473ffffffffffffffffffffffffffffffffffffffff1673ffffffffffffffffffffffffffffffffffffffff1681526020019081526020016000206000828254611de09190612c7d565b92505081905550816002600083815260200190815260200160002060006101000a81548173ffffffffffffffffffffffffffffffffffffffff021916908373ffffffffffffffffffffffffffffffffffffffff160217905550808273ffffffffffffffffffffffffffffffffffffffff16600073ffffffffffffffffffffffffffffffffffffffff167fddf252ad1be2c89b69c2b068fc378daa952ba7f163c4a11628f55a4df523b3ef60405160405180910390a4611ea160008383611956565b5050565b6000808273ffffffffffffffffffffffffffffffffffffffff163b119050919050565b505050565b6008805490506009600083815260200190815260200160002081905550600881908060018154018082558091505060019003906000526020600020016000909190919091505550565b60006001611f2384610a3c565b611f2d9190612d5e565b9050600060076000848152602001908152602001600020549050818114612012576000600660008673ffffffffffffffffffffffffffffffffffffffff1673ffffffffffffffffffffffffffffffffffffffff168152602001908152602001600020600084815260200190815260200160002054905080600660008773ffffffffffffffffffffffffffffffffffffffff1673ffffffffffffffffffffffffffffffffffffffff168152602001908152602001600020600084815260200190815260200160002081905550816007600083815260200190815260200160002081905550505b6007600084815260200190815260200160002060009055600660008573ffffffffffffffffffffffffffffffffffffffff1673ffffffffffffffffffffffffffffffffffffffff16815260200190815260200160002060008381526020019081526020016000206000905550505050565b600060016008805490506120979190612d5e565b90506000600960008481526020019081526020016000205490506000600883815481106120ed577f4e487b7100000000000000000000000000000000000000000000000000000000600052603260045260246000fd5b906000526020600020015490508060088381548110612135577f4e487b7100000000000000000000000000000000000000000000000000000000600052603260045260246000fd5b9060005260206000200181905550816009600083815260200190815260200160002081905550600960008581526020019081526020016000206000905560088054806121aa577f4e487b7100000000000000000000000000000000000000000000000000000000600052603160045260246000fd5b6001900381819060005260206000200160009055905550505050565b60006121d183610a3c565b905081600660008573ffffffffffffffffffffffffffffffffffffffff1673ffffffffffffffffffffffffffffffffffffffff168152602001908152602001600020600083815260200190815260200160002081905550806007600084815260200190815260200160002081905550505050565b600061225861225384612c09565b612be4565b90508281526020810184848401111561227057600080fd5b61227b848285612e06565b509392505050565b60008135905061229281613511565b92915050565b6000813590506122a781613528565b92915050565b6000813590506122bc8161353f565b92915050565b6000815190506122d18161353f565b92915050565b600082601f8301126122e857600080fd5b81356122f8848260208601612245565b91505092915050565b60008135905061231081613556565b92915050565b60006020828403121561232857600080fd5b600061233684828501612283565b91505092915050565b6000806040838503121561235257600080fd5b600061236085828601612283565b925050602061237185828601612283565b9150509250929050565b60008060006060848603121561239057600080fd5b600061239e86828701612283565b93505060206123af86828701612283565b92505060406123c086828701612301565b9150509250925092565b600080600080608085870312156123e057600080fd5b60006123ee87828801612283565b94505060206123ff87828801612283565b935050604061241087828801612301565b925050606085013567ffffffffffffffff81111561242d57600080fd5b612439878288016122d7565b91505092959194509250565b6000806040838503121561245857600080fd5b600061246685828601612283565b925050602061247785828601612298565b9150509250929050565b6000806040838503121561249457600080fd5b60006124a285828601612283565b92505060206124b385828601612301565b9150509250929050565b6000602082840312156124cf57600080fd5b60006124dd848285016122ad565b91505092915050565b6000602082840312156124f857600080fd5b6000612506848285016122c2565b91505092915050565b60006020828403121561252157600080fd5b600061252f84828501612301565b91505092915050565b61254181612d92565b82525050565b61255081612da4565b82525050565b600061256182612c3a565b61256b8185612c50565b935061257b818560208601612e15565b61258481612fe1565b840191505092915050565b600061259a82612c45565b6125a48185612c61565b93506125b4818560208601612e15565b6125bd81612fe1565b840191505092915050565b60006125d382612c45565b6125dd8185612c72565b93506125ed818560208601612e15565b80840191505092915050565b6000612606601383612c61565b915061261182612ff2565b602082019050919050565b6000612629602b83612c61565b91506126348261301b565b604082019050919050565b600061264c603283612c61565b91506126578261306a565b604082019050919050565b600061266f602683612c61565b915061267a826130b9565b604082019050919050565b6000612692602583612c61565b915061269d82613108565b604082019050919050565b60006126b5601c83612c61565b91506126c082613157565b602082019050919050565b60006126d8602483612c61565b91506126e382613180565b604082019050919050565b60006126fb601983612c61565b9150612706826131cf565b602082019050919050565b600061271e602c83612c61565b9150612729826131f8565b604082019050919050565b6000612741603883612c61565b915061274c82613247565b604082019050919050565b6000612764602a83612c61565b915061276f82613296565b604082019050919050565b6000612787602983612c61565b9150612792826132e5565b604082019050919050565b60006127aa602083612c61565b91506127b582613334565b602082019050919050565b60006127cd602c83612c61565b91506127d88261335d565b604082019050919050565b60006127f0602083612c61565b91506127fb826133ac565b602082019050919050565b6000612813602f83612c61565b915061281e826133d5565b604082019050919050565b6000612836602183612c61565b915061284182613424565b604082019050919050565b6000612859603183612c61565b915061286482613473565b604082019050919050565b600061287c602c83612c61565b9150612887826134c2565b604082019050919050565b61289b81612dfc565b82525050565b60006128ad82856125c8565b91506128b982846125c8565b91508190509392505050565b60006020820190506128da6000830184612538565b92915050565b60006080820190506128f56000830187612538565b6129026020830186612538565b61290f6040830185612892565b81810360608301526129218184612556565b905095945050505050565b60006020820190506129416000830184612547565b92915050565b60006020820190508181036000830152612961818461258f565b905092915050565b60006020820190508181036000830152612982816125f9565b9050919050565b600060208201905081810360008301526129a28161261c565b9050919050565b600060208201905081810360008301526129c28161263f565b9050919050565b600060208201905081810360008301526129e281612662565b9050919050565b60006020820190508181036000830152612a0281612685565b9050919050565b60006020820190508181036000830152612a22816126a8565b9050919050565b60006020820190508181036000830152612a42816126cb565b9050919050565b60006020820190508181036000830152612a62816126ee565b9050919050565b60006020820190508181036000830152612a8281612711565b9050919050565b60006020820190508181036000830152612aa281612734565b9050919050565b60006020820190508181036000830152612ac281612757565b9050919050565b60006020820190508181036000830152612ae28161277a565b9050919050565b60006020820190508181036000830152612b028161279d565b9050919050565b60006020820190508181036000830152612b22816127c0565b9050919050565b60006020820190508181036000830152612b42816127e3565b9050919050565b60006020820190508181036000830152612b6281612806565b9050919050565b60006020820190508181036000830152612b8281612829565b9050919050565b60006020820190508181036000830152612ba28161284c565b9050919050565b60006020820190508181036000830152612bc28161286f565b9050919050565b6000602082019050612bde6000830184612892565b92915050565b6000612bee612bff565b9050612bfa8282612e7a565b919050565b6000604051905090565b600067ffffffffffffffff821115612c2457612c23612fb2565b5b612c2d82612fe1565b9050602081019050919050565b600081519050919050565b600081519050919050565b600082825260208201905092915050565b600082825260208201905092915050565b600081905092915050565b6000612c8882612dfc565b9150612c9383612dfc565b9250827fffffffffffffffffffffffffffffffffffffffffffffffffffffffffffffffff03821115612cc857612cc7612f25565b5b828201905092915050565b6000612cde82612dfc565b9150612ce983612dfc565b925082612cf957612cf8612f54565b5b828204905092915050565b6000612d0f82612dfc565b9150612d1a83612dfc565b9250817fffffffffffffffffffffffffffffffffffffffffffffffffffffffffffffffff0483118215151615612d5357612d52612f25565b5b828202905092915050565b6000612d6982612dfc565b9150612d7483612dfc565b925082821015612d8757612d86612f25565b5b828203905092915050565b6000612d9d82612ddc565b9050919050565b60008115159050919050565b60007fffffffff0000000000000000000000000000000000000000000000000000000082169050919050565b600073ffffffffffffffffffffffffffffffffffffffff82169050919050565b6000819050919050565b82818337600083830152505050565b60005b83811015612e33578082015181840152602081019050612e18565b83811115612e42576000848401525b50505050565b60006002820490506001821680612e6057607f821691505b60208210811415612e7457612e73612f83565b5b50919050565b612e8382612fe1565b810181811067ffffffffffffffff82111715612ea257612ea1612fb2565b5b80604052505050565b6000612eb682612dfc565b91507fffffffffffffffffffffffffffffffffffffffffffffffffffffffffffffffff821415612ee957612ee8612f25565b5b600182019050919050565b6000612eff82612dfc565b9150612f0a83612dfc565b925082612f1a57612f19612f54565b5b828206905092915050565b7f4e487b7100000000000000000000000000000000000000000000000000000000600052601160045260246000fd5b7f4e487b7100000000000000000000000000000000000000000000000000000000600052601260045260246000fd5b7f4e487b7100000000000000000000000000000000000000000000000000000000600052602260045260246000fd5b7f4e487b7100000000000000000000000000000000000000000000000000000000600052604160045260246000fd5b6000601f19601f8301169050919050565b7f496e73756666696369656e742046616e746f6d00000000000000000000000000600082015250565b7f455243373231456e756d657261626c653a206f776e657220696e646578206f7560008201527f74206f6620626f756e6473000000000000000000000000000000000000000000602082015250565b7f4552433732313a207472616e7366657220746f206e6f6e20455243373231526560008201527f63656976657220696d706c656d656e7465720000000000000000000000000000602082015250565b7f4f776e61626c653a206e6577206f776e657220697320746865207a65726f206160008201527f6464726573730000000000000000000000000000000000000000000000000000602082015250565b7f4552433732313a207472616e736665722066726f6d20696e636f72726563742060008201527f6f776e6572000000000000000000000000000000000000000000000000000000602082015250565b7f4552433732313a20746f6b656e20616c7265616479206d696e74656400000000600082015250565b7f4552433732313a207472616e7366657220746f20746865207a65726f2061646460008201527f7265737300000000000000000000000000000000000000000000000000000000602082015250565b7f4552433732313a20617070726f766520746f2063616c6c657200000000000000600082015250565b7f4552433732313a206f70657261746f7220717565727920666f72206e6f6e657860008201527f697374656e7420746f6b656e0000000000000000000000000000000000000000602082015250565b7f4552433732313a20617070726f76652063616c6c6572206973206e6f74206f7760008201527f6e6572206e6f7220617070726f76656420666f7220616c6c0000000000000000602082015250565b7f4552433732313a2062616c616e636520717565727920666f7220746865207a6560008201527f726f206164647265737300000000000000000000000000000000000000000000602082015250565b7f4552433732313a206f776e657220717565727920666f72206e6f6e657869737460008201527f656e7420746f6b656e0000000000000000000000000000000000000000000000602082015250565b7f4552433732313a206d696e7420746f20746865207a65726f2061646472657373600082015250565b7f4552433732313a20617070726f76656420717565727920666f72206e6f6e657860008201527f697374656e7420746f6b656e0000000000000000000000000000000000000000602082015250565b7f4f776e61626c653a2063616c6c6572206973206e6f7420746865206f776e6572600082015250565b7f4552433732314d657461646174613a2055524920717565727920666f72206e6f60008201527f6e6578697374656e7420746f6b656e0000000000000000000000000000000000602082015250565b7f4552433732313a20617070726f76616c20746f2063757272656e74206f776e6560008201527f7200000000000000000000000000000000000000000000000000000000000000602082015250565b7f4552433732313a207472616e736665722063616c6c6572206973206e6f74206f60008201527f776e6572206e6f7220617070726f766564000000000000000000000000000000602082015250565b7f455243373231456e756d657261626c653a20676c6f62616c20696e646578206f60008201527f7574206f6620626f756e64730000000000000000000000000000000000000000602082015250565b61351a81612d92565b811461352557600080fd5b50565b61353181612da4565b811461353c57600080fd5b50565b61354881612db0565b811461355357600080fd5b50565b61355f81612dfc565b811461356a57600080fd5b5056fea2646970667358221220ff6f40d6707f4da53133891d66b69f4eb37d7f560f98c20a046736492a18346f64736f6c63430008040033",
  "linkReferences": {},
  "deployedLinkReferences": {}
}