{
  "_format": "hh-sol-artifact-1",
  "contractName": "FantomBulls",
  "sourceName": "contracts/FantomBulls.sol",
  "abi": [
    {
      "inputs": [],
      "stateMutability": "nonpayable",
      "type": "constructor"
    },
    {
      "anonymous": false,
      "inputs": [
        {
          "indexed": true,
          "internalType": "address",
          "name": "owner",
          "type": "address"
        },
        {
          "indexed": true,
          "internalType": "address",
          "name": "approved",
          "type": "address"
        },
        {
          "indexed": true,
          "internalType": "uint256",
          "name": "tokenId",
          "type": "uint256"
        }
      ],
      "name": "Approval",
      "type": "event"
    },
    {
      "anonymous": false,
      "inputs": [
        {
          "indexed": true,
          "internalType": "address",
          "name": "owner",
          "type": "address"
        },
        {
          "indexed": true,
          "internalType": "address",
          "name": "operator",
          "type": "address"
        },
        {
          "indexed": false,
          "internalType": "bool",
          "name": "approved",
          "type": "bool"
        }
      ],
      "name": "ApprovalForAll",
      "type": "event"
    },
    {
      "anonymous": false,
      "inputs": [
        {
          "indexed": true,
          "internalType": "address",
          "name": "previousOwner",
          "type": "address"
        },
        {
          "indexed": true,
          "internalType": "address",
          "name": "newOwner",
          "type": "address"
        }
      ],
      "name": "OwnershipTransferred",
      "type": "event"
    },
    {
      "anonymous": false,
      "inputs": [
        {
          "indexed": true,
          "internalType": "address",
          "name": "from",
          "type": "address"
        },
        {
          "indexed": true,
          "internalType": "address",
          "name": "to",
          "type": "address"
        },
        {
          "indexed": true,
          "internalType": "uint256",
          "name": "tokenId",
          "type": "uint256"
        }
      ],
      "name": "Transfer",
      "type": "event"
    },
    {
      "inputs": [
        {
          "internalType": "address",
          "name": "to",
          "type": "address"
        },
        {
          "internalType": "uint256",
          "name": "tokenId",
          "type": "uint256"
        }
      ],
      "name": "approve",
      "outputs": [],
      "stateMutability": "nonpayable",
      "type": "function"
    },
    {
      "inputs": [
        {
          "internalType": "address",
          "name": "owner",
          "type": "address"
        }
      ],
      "name": "balanceOf",
      "outputs": [
        {
          "internalType": "uint256",
          "name": "",
          "type": "uint256"
        }
      ],
      "stateMutability": "view",
      "type": "function"
    },
    {
      "inputs": [],
      "name": "baseExtension",
      "outputs": [
        {
          "internalType": "string",
          "name": "",
          "type": "string"
        }
      ],
      "stateMutability": "view",
      "type": "function"
    },
    {
      "inputs": [],
      "name": "cost",
      "outputs": [
        {
          "internalType": "uint256",
          "name": "",
          "type": "uint256"
        }
      ],
      "stateMutability": "view",
      "type": "function"
    },
    {
      "inputs": [
        {
          "internalType": "uint256",
          "name": "tokenId",
          "type": "uint256"
        }
      ],
      "name": "getApproved",
      "outputs": [
        {
          "internalType": "address",
          "name": "",
          "type": "address"
        }
      ],
      "stateMutability": "view",
      "type": "function"
    },
    {
      "inputs": [
        {
          "internalType": "address",
          "name": "owner",
          "type": "address"
        },
        {
          "internalType": "address",
          "name": "operator",
          "type": "address"
        }
      ],
      "name": "isApprovedForAll",
      "outputs": [
        {
          "internalType": "bool",
          "name": "",
          "type": "bool"
        }
      ],
      "stateMutability": "view",
      "type": "function"
    },
    {
      "inputs": [],
      "name": "maxMintAmount",
      "outputs": [
        {
          "internalType": "uint256",
          "name": "",
          "type": "uint256"
        }
      ],
      "stateMutability": "view",
      "type": "function"
    },
    {
      "inputs": [],
      "name": "maxSupply",
      "outputs": [
        {
          "internalType": "uint256",
          "name": "",
          "type": "uint256"
        }
      ],
      "stateMutability": "view",
      "type": "function"
    },
    {
      "inputs": [
        {
          "internalType": "uint256",
          "name": "_mintAmount",
          "type": "uint256"
        }
      ],
      "name": "mint",
      "outputs": [],
      "stateMutability": "payable",
      "type": "function"
    },
    {
      "inputs": [],
      "name": "name",
      "outputs": [
        {
          "internalType": "string",
          "name": "",
          "type": "string"
        }
      ],
      "stateMutability": "view",
      "type": "function"
    },
    {
      "inputs": [],
      "name": "notRevealedUri",
      "outputs": [
        {
          "internalType": "string",
          "name": "",
          "type": "string"
        }
      ],
      "stateMutability": "view",
      "type": "function"
    },
    {
      "inputs": [],
      "name": "owner",
      "outputs": [
        {
          "internalType": "address",
          "name": "",
          "type": "address"
        }
      ],
      "stateMutability": "view",
      "type": "function"
    },
    {
      "inputs": [
        {
          "internalType": "uint256",
          "name": "tokenId",
          "type": "uint256"
        }
      ],
      "name": "ownerOf",
      "outputs": [
        {
          "internalType": "address",
          "name": "",
          "type": "address"
        }
      ],
      "stateMutability": "view",
      "type": "function"
    },
    {
      "inputs": [
        {
          "internalType": "bool",
          "name": "_state",
          "type": "bool"
        }
      ],
      "name": "pause",
      "outputs": [],
      "stateMutability": "nonpayable",
      "type": "function"
    },
    {
      "inputs": [],
      "name": "paused",
      "outputs": [
        {
          "internalType": "bool",
          "name": "",
          "type": "bool"
        }
      ],
      "stateMutability": "view",
      "type": "function"
    },
    {
      "inputs": [],
      "name": "renounceOwnership",
      "outputs": [],
      "stateMutability": "nonpayable",
      "type": "function"
    },
    {
      "inputs": [],
      "name": "reveal",
      "outputs": [],
      "stateMutability": "nonpayable",
      "type": "function"
    },
    {
      "inputs": [],
      "name": "revealed",
      "outputs": [
        {
          "internalType": "bool",
          "name": "",
          "type": "bool"
        }
      ],
      "stateMutability": "view",
      "type": "function"
    },
    {
      "inputs": [
        {
          "internalType": "address",
          "name": "from",
          "type": "address"
        },
        {
          "internalType": "address",
          "name": "to",
          "type": "address"
        },
        {
          "internalType": "uint256",
          "name": "tokenId",
          "type": "uint256"
        }
      ],
      "name": "safeTransferFrom",
      "outputs": [],
      "stateMutability": "nonpayable",
      "type": "function"
    },
    {
      "inputs": [
        {
          "internalType": "address",
          "name": "from",
          "type": "address"
        },
        {
          "internalType": "address",
          "name": "to",
          "type": "address"
        },
        {
          "internalType": "uint256",
          "name": "tokenId",
          "type": "uint256"
        },
        {
          "internalType": "bytes",
          "name": "_data",
          "type": "bytes"
        }
      ],
      "name": "safeTransferFrom",
      "outputs": [],
      "stateMutability": "nonpayable",
      "type": "function"
    },
    {
      "inputs": [
        {
          "internalType": "address",
          "name": "operator",
          "type": "address"
        },
        {
          "internalType": "bool",
          "name": "approved",
          "type": "bool"
        }
      ],
      "name": "setApprovalForAll",
      "outputs": [],
      "stateMutability": "nonpayable",
      "type": "function"
    },
    {
      "inputs": [
        {
          "internalType": "string",
          "name": "_newBaseExtension",
          "type": "string"
        }
      ],
      "name": "setBaseExtension",
      "outputs": [],
      "stateMutability": "nonpayable",
      "type": "function"
    },
    {
      "inputs": [
        {
          "internalType": "string",
          "name": "_newBaseURI",
          "type": "string"
        }
      ],
      "name": "setBaseURI",
      "outputs": [],
      "stateMutability": "nonpayable",
      "type": "function"
    },
    {
      "inputs": [
        {
          "internalType": "uint256",
          "name": "_newCost",
          "type": "uint256"
        }
      ],
      "name": "setCost",
      "outputs": [],
      "stateMutability": "nonpayable",
      "type": "function"
    },
    {
      "inputs": [
        {
          "internalType": "string",
          "name": "_notRevealedURI",
          "type": "string"
        }
      ],
      "name": "setNotRevealedURI",
      "outputs": [],
      "stateMutability": "nonpayable",
      "type": "function"
    },
    {
      "inputs": [
        {
          "internalType": "uint256",
          "name": "_newmaxMintAmount",
          "type": "uint256"
        }
      ],
      "name": "setmaxMintAmount",
      "outputs": [],
      "stateMutability": "nonpayable",
      "type": "function"
    },
    {
      "inputs": [
        {
          "internalType": "bytes4",
          "name": "interfaceId",
          "type": "bytes4"
        }
      ],
      "name": "supportsInterface",
      "outputs": [
        {
          "internalType": "bool",
          "name": "",
          "type": "bool"
        }
      ],
      "stateMutability": "view",
      "type": "function"
    },
    {
      "inputs": [],
      "name": "symbol",
      "outputs": [
        {
          "internalType": "string",
          "name": "",
          "type": "string"
        }
      ],
      "stateMutability": "view",
      "type": "function"
    },
    {
      "inputs": [
        {
          "internalType": "uint256",
          "name": "index",
          "type": "uint256"
        }
      ],
      "name": "tokenByIndex",
      "outputs": [
        {
          "internalType": "uint256",
          "name": "",
          "type": "uint256"
        }
      ],
      "stateMutability": "view",
      "type": "function"
    },
    {
      "inputs": [
        {
          "internalType": "address",
          "name": "owner",
          "type": "address"
        },
        {
          "internalType": "uint256",
          "name": "index",
          "type": "uint256"
        }
      ],
      "name": "tokenOfOwnerByIndex",
      "outputs": [
        {
          "internalType": "uint256",
          "name": "",
          "type": "uint256"
        }
      ],
      "stateMutability": "view",
      "type": "function"
    },
    {
      "inputs": [
        {
          "internalType": "uint256",
          "name": "tokenId",
          "type": "uint256"
        }
      ],
      "name": "tokenURI",
      "outputs": [
        {
          "internalType": "string",
          "name": "",
          "type": "string"
        }
      ],
      "stateMutability": "view",
      "type": "function"
    },
    {
      "inputs": [],
      "name": "totalSupply",
      "outputs": [
        {
          "internalType": "uint256",
          "name": "",
          "type": "uint256"
        }
      ],
      "stateMutability": "view",
      "type": "function"
    },
    {
      "inputs": [
        {
          "internalType": "address",
          "name": "from",
          "type": "address"
        },
        {
          "internalType": "address",
          "name": "to",
          "type": "address"
        },
        {
          "internalType": "uint256",
          "name": "tokenId",
          "type": "uint256"
        }
      ],
      "name": "transferFrom",
      "outputs": [],
      "stateMutability": "nonpayable",
      "type": "function"
    },
    {
      "inputs": [
        {
          "internalType": "address",
          "name": "newOwner",
          "type": "address"
        }
      ],
      "name": "transferOwnership",
      "outputs": [],
      "stateMutability": "nonpayable",
      "type": "function"
    },
    {
      "inputs": [
        {
          "internalType": "address",
          "name": "_owner",
          "type": "address"
        }
      ],
      "name": "walletOfOwner",
      "outputs": [
        {
          "internalType": "uint256[]",
          "name": "",
          "type": "uint256[]"
        }
      ],
      "stateMutability": "view",
      "type": "function"
    },
    {
      "inputs": [],
      "name": "withdraw",
      "outputs": [],
      "stateMutability": "payable",
      "type": "function"
    }
  ],
  "bytecode": "0x60806040526040518060400160405280600581526020017f2e6a736f6e000000000000000000000000000000000000000000000000000000815250600c90805190602001906200005192919062000241565b5067016345785d8a0000600d556103e8600e55600a600f556000601060006101000a81548160ff0219169083151502179055506000601060016101000a81548160ff021916908315150217905550348015620000ac57600080fd5b506040518060400160405280600c81526020017f46616e746f6d2042756c6c7300000000000000000000000000000000000000008152506040518060400160405280600481526020017f42554c4c0000000000000000000000000000000000000000000000000000000081525081600090805190602001906200013192919062000241565b5080600190805190602001906200014a92919062000241565b5050506200016d620001616200017360201b60201c565b6200017b60201b60201c565b62000356565b600033905090565b6000600a60009054906101000a900473ffffffffffffffffffffffffffffffffffffffff16905081600a60006101000a81548173ffffffffffffffffffffffffffffffffffffffff021916908373ffffffffffffffffffffffffffffffffffffffff1602179055508173ffffffffffffffffffffffffffffffffffffffff168173ffffffffffffffffffffffffffffffffffffffff167f8be0079c531659141344cd1fd0a4f28419497f9722a3daafe3b4186f6b6457e060405160405180910390a35050565b8280546200024f90620002f1565b90600052602060002090601f016020900481019282620002735760008555620002bf565b82601f106200028e57805160ff1916838001178555620002bf565b82800160010185558215620002bf579182015b82811115620002be578251825591602001919060010190620002a1565b5b509050620002ce9190620002d2565b5090565b5b80821115620002ed576000816000905550600101620002d3565b5090565b600060028204905060018216806200030a57607f821691505b6020821081141562000321576200032062000327565b5b50919050565b7f4e487b7100000000000000000000000000000000000000000000000000000000600052602260045260246000fd5b61474180620003666000396000f3fe60806040526004361061020f5760003560e01c80635c975abb11610118578063a475b5dd116100a0578063d5abeb011161006f578063d5abeb011461076f578063da3ef23f1461079a578063e985e9c5146107c3578063f2c4ce1e14610800578063f2fde38b146108295761020f565b8063a475b5dd146106c7578063b88d4fde146106de578063c668286214610707578063c87b56dd146107325761020f565b80637f00c7a6116100e75780637f00c7a6146106035780638da5cb5b1461062c57806395d89b4114610657578063a0712d6814610682578063a22cb4651461069e5761020f565b80635c975abb146105475780636352211e1461057257806370a08231146105af578063715018a6146105ec5761020f565b806323b872dd1161019b578063438b63001161016a578063438b63001461045057806344a0d68a1461048d5780634f6ccce7146104b657806351830227146104f357806355f804b31461051e5761020f565b806323b872dd146103b75780632f745c59146103e05780633ccfd60b1461041d57806342842e0e146104275761020f565b8063081c8c44116101e2578063081c8c44146102e2578063095ea7b31461030d57806313faede61461033657806318160ddd14610361578063239c70ae1461038c5761020f565b806301ffc9a71461021457806302329a291461025157806306fdde031461027a578063081812fc146102a5575b600080fd5b34801561022057600080fd5b5061023b600480360381019061023691906132b8565b610852565b604051610248919061393c565b60405180910390f35b34801561025d57600080fd5b506102786004803603810190610273919061328f565b6108cc565b005b34801561028657600080fd5b5061028f610965565b60405161029c9190613957565b60405180910390f35b3480156102b157600080fd5b506102cc60048036038101906102c7919061334b565b6109f7565b6040516102d991906138b3565b60405180910390f35b3480156102ee57600080fd5b506102f7610a7c565b6040516103049190613957565b60405180910390f35b34801561031957600080fd5b50610334600480360381019061032f9190613253565b610b0a565b005b34801561034257600080fd5b5061034b610c22565b6040516103589190613c39565b60405180910390f35b34801561036d57600080fd5b50610376610c28565b6040516103839190613c39565b60405180910390f35b34801561039857600080fd5b506103a1610c35565b6040516103ae9190613c39565b60405180910390f35b3480156103c357600080fd5b506103de60048036038101906103d9919061314d565b610c3b565b005b3480156103ec57600080fd5b5061040760048036038101906104029190613253565b610c9b565b6040516104149190613c39565b60405180910390f35b610425610d40565b005b34801561043357600080fd5b5061044e6004803603810190610449919061314d565b610e3c565b005b34801561045c57600080fd5b50610477600480360381019061047291906130e8565b610e5c565b604051610484919061391a565b60405180910390f35b34801561049957600080fd5b506104b460048036038101906104af919061334b565b610f56565b005b3480156104c257600080fd5b506104dd60048036038101906104d8919061334b565b610fdc565b6040516104ea9190613c39565b60405180910390f35b3480156104ff57600080fd5b50610508611073565b604051610515919061393c565b60405180910390f35b34801561052a57600080fd5b506105456004803603810190610540919061330a565b611086565b005b34801561055357600080fd5b5061055c61111c565b604051610569919061393c565b60405180910390f35b34801561057e57600080fd5b506105996004803603810190610594919061334b565b61112f565b6040516105a691906138b3565b60405180910390f35b3480156105bb57600080fd5b506105d660048036038101906105d191906130e8565b6111e1565b6040516105e39190613c39565b60405180910390f35b3480156105f857600080fd5b50610601611299565b005b34801561060f57600080fd5b5061062a6004803603810190610625919061334b565b611321565b005b34801561063857600080fd5b506106416113a7565b60405161064e91906138b3565b60405180910390f35b34801561066357600080fd5b5061066c6113d1565b6040516106799190613957565b60405180910390f35b61069c6004803603810190610697919061334b565b611463565b005b3480156106aa57600080fd5b506106c560048036038101906106c09190613217565b611627565b005b3480156106d357600080fd5b506106dc61163d565b005b3480156106ea57600080fd5b506107056004803603810190610700919061319c565b6116d6565b005b34801561071357600080fd5b5061071c611738565b6040516107299190613957565b60405180910390f35b34801561073e57600080fd5b506107596004803603810190610754919061334b565b6117c6565b6040516107669190613957565b60405180910390f35b34801561077b57600080fd5b5061078461191f565b6040516107919190613c39565b60405180910390f35b3480156107a657600080fd5b506107c160048036038101906107bc919061330a565b611925565b005b3480156107cf57600080fd5b506107ea60048036038101906107e59190613111565b6119bb565b6040516107f7919061393c565b60405180910390f35b34801561080c57600080fd5b506108276004803603810190610822919061330a565b611a4f565b005b34801561083557600080fd5b50610850600480360381019061084b91906130e8565b611ae5565b005b60007f780e9d63000000000000000000000000000000000000000000000000000000007bffffffffffffffffffffffffffffffffffffffffffffffffffffffff1916827bffffffffffffffffffffffffffffffffffffffffffffffffffffffff191614806108c557506108c482611bdd565b5b9050919050565b6108d4611cbf565b73ffffffffffffffffffffffffffffffffffffffff166108f26113a7565b73ffffffffffffffffffffffffffffffffffffffff1614610948576040517f08c379a000000000000000000000000000000000000000000000000000000000815260040161093f90613b59565b60405180910390fd5b80601060006101000a81548160ff02191690831515021790555050565b60606000805461097490613f42565b80601f01602080910402602001604051908101604052809291908181526020018280546109a090613f42565b80156109ed5780601f106109c2576101008083540402835291602001916109ed565b820191906000526020600020905b8154815290600101906020018083116109d057829003601f168201915b5050505050905090565b6000610a0282611cc7565b610a41576040517f08c379a0000000000000000000000000000000000000000000000000000000008152600401610a3890613b39565b60405180910390fd5b6004600083815260200190815260200160002060009054906101000a900473ffffffffffffffffffffffffffffffffffffffff169050919050565b60118054610a8990613f42565b80601f0160208091040260200160405190810160405280929190818152602001828054610ab590613f42565b8015610b025780601f10610ad757610100808354040283529160200191610b02565b820191906000526020600020905b815481529060010190602001808311610ae557829003601f168201915b505050505081565b6000610b158261112f565b90508073ffffffffffffffffffffffffffffffffffffffff168373ffffffffffffffffffffffffffffffffffffffff161415610b86576040517f08c379a0000000000000000000000000000000000000000000000000000000008152600401610b7d90613b99565b60405180910390fd5b8073ffffffffffffffffffffffffffffffffffffffff16610ba5611cbf565b73ffffffffffffffffffffffffffffffffffffffff161480610bd45750610bd381610bce611cbf565b6119bb565b5b610c13576040517f08c379a0000000000000000000000000000000000000000000000000000000008152600401610c0a90613ab9565b60405180910390fd5b610c1d8383611d33565b505050565b600d5481565b6000600880549050905090565b600f5481565b610c4c610c46611cbf565b82611dec565b610c8b576040517f08c379a0000000000000000000000000000000000000000000000000000000008152600401610c8290613bb9565b60405180910390fd5b610c96838383611eca565b505050565b6000610ca6836111e1565b8210610ce7576040517f08c379a0000000000000000000000000000000000000000000000000000000008152600401610cde90613979565b60405180910390fd5b600660008473ffffffffffffffffffffffffffffffffffffffff1673ffffffffffffffffffffffffffffffffffffffff168152602001908152602001600020600083815260200190815260200160002054905092915050565b610d48611cbf565b73ffffffffffffffffffffffffffffffffffffffff16610d666113a7565b73ffffffffffffffffffffffffffffffffffffffff1614610dbc576040517f08c379a0000000000000000000000000000000000000000000000000000000008152600401610db390613b59565b60405180910390fd5b6000610dc66113a7565b73ffffffffffffffffffffffffffffffffffffffff1647604051610de99061389e565b60006040518083038185875af1925050503d8060008114610e26576040519150601f19603f3d011682016040523d82523d6000602084013e610e2b565b606091505b5050905080610e3957600080fd5b50565b610e57838383604051806020016040528060008152506116d6565b505050565b60606000610e69836111e1565b905060008167ffffffffffffffff811115610ead577f4e487b7100000000000000000000000000000000000000000000000000000000600052604160045260246000fd5b604051908082528060200260200182016040528015610edb5781602001602082028036833780820191505090505b50905060005b82811015610f4b57610ef38582610c9b565b828281518110610f2c577f4e487b7100000000000000000000000000000000000000000000000000000000600052603260045260246000fd5b6020026020010181815250508080610f4390613fa5565b915050610ee1565b508092505050919050565b610f5e611cbf565b73ffffffffffffffffffffffffffffffffffffffff16610f7c6113a7565b73ffffffffffffffffffffffffffffffffffffffff1614610fd2576040517f08c379a0000000000000000000000000000000000000000000000000000000008152600401610fc990613b59565b60405180910390fd5b80600d8190555050565b6000610fe6610c28565b8210611027576040517f08c379a000000000000000000000000000000000000000000000000000000000815260040161101e90613bf9565b60405180910390fd5b60088281548110611061577f4e487b7100000000000000000000000000000000000000000000000000000000600052603260045260246000fd5b90600052602060002001549050919050565b601060019054906101000a900460ff1681565b61108e611cbf565b73ffffffffffffffffffffffffffffffffffffffff166110ac6113a7565b73ffffffffffffffffffffffffffffffffffffffff1614611102576040517f08c379a00000000000000000000000000000000000000000000000000000000081526004016110f990613b59565b60405180910390fd5b80600b9080519060200190611118929190612f0c565b5050565b601060009054906101000a900460ff1681565b6000806002600084815260200190815260200160002060009054906101000a900473ffffffffffffffffffffffffffffffffffffffff169050600073ffffffffffffffffffffffffffffffffffffffff168173ffffffffffffffffffffffffffffffffffffffff1614156111d8576040517f08c379a00000000000000000000000000000000000000000000000000000000081526004016111cf90613af9565b60405180910390fd5b80915050919050565b60008073ffffffffffffffffffffffffffffffffffffffff168273ffffffffffffffffffffffffffffffffffffffff161415611252576040517f08c379a000000000000000000000000000000000000000000000000000000000815260040161124990613ad9565b60405180910390fd5b600360008373ffffffffffffffffffffffffffffffffffffffff1673ffffffffffffffffffffffffffffffffffffffff168152602001908152602001600020549050919050565b6112a1611cbf565b73ffffffffffffffffffffffffffffffffffffffff166112bf6113a7565b73ffffffffffffffffffffffffffffffffffffffff1614611315576040517f08c379a000000000000000000000000000000000000000000000000000000000815260040161130c90613b59565b60405180910390fd5b61131f6000612131565b565b611329611cbf565b73ffffffffffffffffffffffffffffffffffffffff166113476113a7565b73ffffffffffffffffffffffffffffffffffffffff161461139d576040517f08c379a000000000000000000000000000000000000000000000000000000000815260040161139490613b59565b60405180910390fd5b80600f8190555050565b6000600a60009054906101000a900473ffffffffffffffffffffffffffffffffffffffff16905090565b6060600180546113e090613f42565b80601f016020809104026020016040519081016040528092919081815260200182805461140c90613f42565b80156114595780601f1061142e57610100808354040283529160200191611459565b820191906000526020600020905b81548152906001019060200180831161143c57829003601f168201915b5050505050905090565b600061146d610c28565b9050601060009054906101000a900460ff16156114bf576040517f08c379a00000000000000000000000000000000000000000000000000000000081526004016114b690613bd9565b60405180910390fd5b60008211611502576040517f08c379a00000000000000000000000000000000000000000000000000000000081526004016114f990613c19565b60405180910390fd5b600f54821115611547576040517f08c379a000000000000000000000000000000000000000000000000000000000815260040161153e90613a19565b60405180910390fd5b600e5482826115569190613d77565b1115611597576040517f08c379a000000000000000000000000000000000000000000000000000000000815260040161158e90613a79565b60405180910390fd5b61159f6113a7565b73ffffffffffffffffffffffffffffffffffffffff163373ffffffffffffffffffffffffffffffffffffffff16146115ec5781600d546115df9190613dfe565b3410156115eb57600080fd5b5b6000600190505b8281116116225761160f33828461160a9190613d77565b6121f7565b808061161a90613fa5565b9150506115f3565b505050565b611639611632611cbf565b8383612215565b5050565b611645611cbf565b73ffffffffffffffffffffffffffffffffffffffff166116636113a7565b73ffffffffffffffffffffffffffffffffffffffff16146116b9576040517f08c379a00000000000000000000000000000000000000000000000000000000081526004016116b090613b59565b60405180910390fd5b6001601060016101000a81548160ff021916908315150217905550565b6116e76116e1611cbf565b83611dec565b611726576040517f08c379a000000000000000000000000000000000000000000000000000000000815260040161171d90613bb9565b60405180910390fd5b61173284848484612382565b50505050565b600c805461174590613f42565b80601f016020809104026020016040519081016040528092919081815260200182805461177190613f42565b80156117be5780601f10611793576101008083540402835291602001916117be565b820191906000526020600020905b8154815290600101906020018083116117a157829003601f168201915b505050505081565b60606117d182611cc7565b611810576040517f08c379a000000000000000000000000000000000000000000000000000000000815260040161180790613b79565b60405180910390fd5b60001515601060019054906101000a900460ff16151514156118be576011805461183990613f42565b80601f016020809104026020016040519081016040528092919081815260200182805461186590613f42565b80156118b25780601f10611887576101008083540402835291602001916118b2565b820191906000526020600020905b81548152906001019060200180831161189557829003601f168201915b5050505050905061191a565b60006118c86123de565b905060008151116118e85760405180602001604052806000815250611916565b806118f284612470565b600c6040516020016119069392919061386d565b6040516020818303038152906040525b9150505b919050565b600e5481565b61192d611cbf565b73ffffffffffffffffffffffffffffffffffffffff1661194b6113a7565b73ffffffffffffffffffffffffffffffffffffffff16146119a1576040517f08c379a000000000000000000000000000000000000000000000000000000000815260040161199890613b59565b60405180910390fd5b80600c90805190602001906119b7929190612f0c565b5050565b6000600560008473ffffffffffffffffffffffffffffffffffffffff1673ffffffffffffffffffffffffffffffffffffffff16815260200190815260200160002060008373ffffffffffffffffffffffffffffffffffffffff1673ffffffffffffffffffffffffffffffffffffffff16815260200190815260200160002060009054906101000a900460ff16905092915050565b611a57611cbf565b73ffffffffffffffffffffffffffffffffffffffff16611a756113a7565b73ffffffffffffffffffffffffffffffffffffffff1614611acb576040517f08c379a0000000000000000000000000000000000000000000000000000000008152600401611ac290613b59565b60405180910390fd5b8060119080519060200190611ae1929190612f0c565b5050565b611aed611cbf565b73ffffffffffffffffffffffffffffffffffffffff16611b0b6113a7565b73ffffffffffffffffffffffffffffffffffffffff1614611b61576040517f08c379a0000000000000000000000000000000000000000000000000000000008152600401611b5890613b59565b60405180910390fd5b600073ffffffffffffffffffffffffffffffffffffffff168173ffffffffffffffffffffffffffffffffffffffff161415611bd1576040517f08c379a0000000000000000000000000000000000000000000000000000000008152600401611bc8906139b9565b60405180910390fd5b611bda81612131565b50565b60007f80ac58cd000000000000000000000000000000000000000000000000000000007bffffffffffffffffffffffffffffffffffffffffffffffffffffffff1916827bffffffffffffffffffffffffffffffffffffffffffffffffffffffff19161480611ca857507f5b5e139f000000000000000000000000000000000000000000000000000000007bffffffffffffffffffffffffffffffffffffffffffffffffffffffff1916827bffffffffffffffffffffffffffffffffffffffffffffffffffffffff1916145b80611cb85750611cb78261261d565b5b9050919050565b600033905090565b60008073ffffffffffffffffffffffffffffffffffffffff166002600084815260200190815260200160002060009054906101000a900473ffffffffffffffffffffffffffffffffffffffff1673ffffffffffffffffffffffffffffffffffffffff1614159050919050565b816004600083815260200190815260200160002060006101000a81548173ffffffffffffffffffffffffffffffffffffffff021916908373ffffffffffffffffffffffffffffffffffffffff160217905550808273ffffffffffffffffffffffffffffffffffffffff16611da68361112f565b73ffffffffffffffffffffffffffffffffffffffff167f8c5be1e5ebec7d5bd14f71427d1e84f3dd0314c0f7b2291e5b200ac8c7c3b92560405160405180910390a45050565b6000611df782611cc7565b611e36576040517f08c379a0000000000000000000000000000000000000000000000000000000008152600401611e2d90613a99565b60405180910390fd5b6000611e418361112f565b90508073ffffffffffffffffffffffffffffffffffffffff168473ffffffffffffffffffffffffffffffffffffffff161480611eb057508373ffffffffffffffffffffffffffffffffffffffff16611e98846109f7565b73ffffffffffffffffffffffffffffffffffffffff16145b80611ec15750611ec081856119bb565b5b91505092915050565b8273ffffffffffffffffffffffffffffffffffffffff16611eea8261112f565b73ffffffffffffffffffffffffffffffffffffffff1614611f40576040517f08c379a0000000000000000000000000000000000000000000000000000000008152600401611f37906139d9565b60405180910390fd5b600073ffffffffffffffffffffffffffffffffffffffff168273ffffffffffffffffffffffffffffffffffffffff161415611fb0576040517f08c379a0000000000000000000000000000000000000000000000000000000008152600401611fa790613a39565b60405180910390fd5b611fbb838383612687565b611fc6600082611d33565b6001600360008573ffffffffffffffffffffffffffffffffffffffff1673ffffffffffffffffffffffffffffffffffffffff16815260200190815260200160002060008282546120169190613e58565b925050819055506001600360008473ffffffffffffffffffffffffffffffffffffffff1673ffffffffffffffffffffffffffffffffffffffff168152602001908152602001600020600082825461206d9190613d77565b92505081905550816002600083815260200190815260200160002060006101000a81548173ffffffffffffffffffffffffffffffffffffffff021916908373ffffffffffffffffffffffffffffffffffffffff160217905550808273ffffffffffffffffffffffffffffffffffffffff168473ffffffffffffffffffffffffffffffffffffffff167fddf252ad1be2c89b69c2b068fc378daa952ba7f163c4a11628f55a4df523b3ef60405160405180910390a461212c83838361279b565b505050565b6000600a60009054906101000a900473ffffffffffffffffffffffffffffffffffffffff16905081600a60006101000a81548173ffffffffffffffffffffffffffffffffffffffff021916908373ffffffffffffffffffffffffffffffffffffffff1602179055508173ffffffffffffffffffffffffffffffffffffffff168173ffffffffffffffffffffffffffffffffffffffff167f8be0079c531659141344cd1fd0a4f28419497f9722a3daafe3b4186f6b6457e060405160405180910390a35050565b6122118282604051806020016040528060008152506127a0565b5050565b8173ffffffffffffffffffffffffffffffffffffffff168373ffffffffffffffffffffffffffffffffffffffff161415612284576040517f08c379a000000000000000000000000000000000000000000000000000000000815260040161227b90613a59565b60405180910390fd5b80600560008573ffffffffffffffffffffffffffffffffffffffff1673ffffffffffffffffffffffffffffffffffffffff16815260200190815260200160002060008473ffffffffffffffffffffffffffffffffffffffff1673ffffffffffffffffffffffffffffffffffffffff16815260200190815260200160002060006101000a81548160ff0219169083151502179055508173ffffffffffffffffffffffffffffffffffffffff168373ffffffffffffffffffffffffffffffffffffffff167f17307eab39ab6107e8899845ad3d59bd9653f200f220920489ca2b5937696c3183604051612375919061393c565b60405180910390a3505050565b61238d848484611eca565b612399848484846127fb565b6123d8576040517f08c379a00000000000000000000000000000000000000000000000000000000081526004016123cf90613999565b60405180910390fd5b50505050565b6060600b80546123ed90613f42565b80601f016020809104026020016040519081016040528092919081815260200182805461241990613f42565b80156124665780601f1061243b57610100808354040283529160200191612466565b820191906000526020600020905b81548152906001019060200180831161244957829003601f168201915b5050505050905090565b606060008214156124b8576040518060400160405280600181526020017f30000000000000000000000000000000000000000000000000000000000000008152509050612618565b600082905060005b600082146124ea5780806124d390613fa5565b915050600a826124e39190613dcd565b91506124c0565b60008167ffffffffffffffff81111561252c577f4e487b7100000000000000000000000000000000000000000000000000000000600052604160045260246000fd5b6040519080825280601f01601f19166020018201604052801561255e5781602001600182028036833780820191505090505b5090505b60008514612611576001826125779190613e58565b9150600a856125869190613fee565b60306125929190613d77565b60f81b8183815181106125ce577f4e487b7100000000000000000000000000000000000000000000000000000000600052603260045260246000fd5b60200101907effffffffffffffffffffffffffffffffffffffffffffffffffffffffffffff1916908160001a905350600a8561260a9190613dcd565b9450612562565b8093505050505b919050565b60007f01ffc9a7000000000000000000000000000000000000000000000000000000007bffffffffffffffffffffffffffffffffffffffffffffffffffffffff1916827bffffffffffffffffffffffffffffffffffffffffffffffffffffffff1916149050919050565b612692838383612992565b600073ffffffffffffffffffffffffffffffffffffffff168373ffffffffffffffffffffffffffffffffffffffff1614156126d5576126d081612997565b612714565b8173ffffffffffffffffffffffffffffffffffffffff168373ffffffffffffffffffffffffffffffffffffffff16146127135761271283826129e0565b5b5b600073ffffffffffffffffffffffffffffffffffffffff168273ffffffffffffffffffffffffffffffffffffffff1614156127575761275281612b4d565b612796565b8273ffffffffffffffffffffffffffffffffffffffff168273ffffffffffffffffffffffffffffffffffffffff1614612795576127948282612c90565b5b5b505050565b505050565b6127aa8383612d0f565b6127b760008484846127fb565b6127f6576040517f08c379a00000000000000000000000000000000000000000000000000000000081526004016127ed90613999565b60405180910390fd5b505050565b600061281c8473ffffffffffffffffffffffffffffffffffffffff16612ee9565b15612985578373ffffffffffffffffffffffffffffffffffffffff1663150b7a02612845611cbf565b8786866040518563ffffffff1660e01b815260040161286794939291906138ce565b602060405180830381600087803b15801561288157600080fd5b505af19250505080156128b257506040513d601f19601f820116820180604052508101906128af91906132e1565b60015b612935573d80600081146128e2576040519150601f19603f3d011682016040523d82523d6000602084013e6128e7565b606091505b5060008151141561292d576040517f08c379a000000000000000000000000000000000000000000000000000000000815260040161292490613999565b60405180910390fd5b805181602001fd5b63150b7a0260e01b7bffffffffffffffffffffffffffffffffffffffffffffffffffffffff1916817bffffffffffffffffffffffffffffffffffffffffffffffffffffffff19161491505061298a565b600190505b949350505050565b505050565b6008805490506009600083815260200190815260200160002081905550600881908060018154018082558091505060019003906000526020600020016000909190919091505550565b600060016129ed846111e1565b6129f79190613e58565b9050600060076000848152602001908152602001600020549050818114612adc576000600660008673ffffffffffffffffffffffffffffffffffffffff1673ffffffffffffffffffffffffffffffffffffffff168152602001908152602001600020600084815260200190815260200160002054905080600660008773ffffffffffffffffffffffffffffffffffffffff1673ffffffffffffffffffffffffffffffffffffffff168152602001908152602001600020600084815260200190815260200160002081905550816007600083815260200190815260200160002081905550505b6007600084815260200190815260200160002060009055600660008573ffffffffffffffffffffffffffffffffffffffff1673ffffffffffffffffffffffffffffffffffffffff16815260200190815260200160002060008381526020019081526020016000206000905550505050565b60006001600880549050612b619190613e58565b9050600060096000848152602001908152602001600020549050600060088381548110612bb7577f4e487b7100000000000000000000000000000000000000000000000000000000600052603260045260246000fd5b906000526020600020015490508060088381548110612bff577f4e487b7100000000000000000000000000000000000000000000000000000000600052603260045260246000fd5b906000526020600020018190555081600960008381526020019081526020016000208190555060096000858152602001908152602001600020600090556008805480612c74577f4e487b7100000000000000000000000000000000000000000000000000000000600052603160045260246000fd5b6001900381819060005260206000200160009055905550505050565b6000612c9b836111e1565b905081600660008573ffffffffffffffffffffffffffffffffffffffff1673ffffffffffffffffffffffffffffffffffffffff168152602001908152602001600020600083815260200190815260200160002081905550806007600084815260200190815260200160002081905550505050565b600073ffffffffffffffffffffffffffffffffffffffff168273ffffffffffffffffffffffffffffffffffffffff161415612d7f576040517f08c379a0000000000000000000000000000000000000000000000000000000008152600401612d7690613b19565b60405180910390fd5b612d8881611cc7565b15612dc8576040517f08c379a0000000000000000000000000000000000000000000000000000000008152600401612dbf906139f9565b60405180910390fd5b612dd460008383612687565b6001600360008473ffffffffffffffffffffffffffffffffffffffff1673ffffffffffffffffffffffffffffffffffffffff1681526020019081526020016000206000828254612e249190613d77565b92505081905550816002600083815260200190815260200160002060006101000a81548173ffffffffffffffffffffffffffffffffffffffff021916908373ffffffffffffffffffffffffffffffffffffffff160217905550808273ffffffffffffffffffffffffffffffffffffffff16600073ffffffffffffffffffffffffffffffffffffffff167fddf252ad1be2c89b69c2b068fc378daa952ba7f163c4a11628f55a4df523b3ef60405160405180910390a4612ee56000838361279b565b5050565b6000808273ffffffffffffffffffffffffffffffffffffffff163b119050919050565b828054612f1890613f42565b90600052602060002090601f016020900481019282612f3a5760008555612f81565b82601f10612f5357805160ff1916838001178555612f81565b82800160010185558215612f81579182015b82811115612f80578251825591602001919060010190612f65565b5b509050612f8e9190612f92565b5090565b5b80821115612fab576000816000905550600101612f93565b5090565b6000612fc2612fbd84613c79565b613c54565b905082815260208101848484011115612fda57600080fd5b612fe5848285613f00565b509392505050565b6000613000612ffb84613caa565b613c54565b90508281526020810184848401111561301857600080fd5b613023848285613f00565b509392505050565b60008135905061303a816146af565b92915050565b60008135905061304f816146c6565b92915050565b600081359050613064816146dd565b92915050565b600081519050613079816146dd565b92915050565b600082601f83011261309057600080fd5b81356130a0848260208601612faf565b91505092915050565b600082601f8301126130ba57600080fd5b81356130ca848260208601612fed565b91505092915050565b6000813590506130e2816146f4565b92915050565b6000602082840312156130fa57600080fd5b60006131088482850161302b565b91505092915050565b6000806040838503121561312457600080fd5b60006131328582860161302b565b92505060206131438582860161302b565b9150509250929050565b60008060006060848603121561316257600080fd5b60006131708682870161302b565b93505060206131818682870161302b565b9250506040613192868287016130d3565b9150509250925092565b600080600080608085870312156131b257600080fd5b60006131c08782880161302b565b94505060206131d18782880161302b565b93505060406131e2878288016130d3565b925050606085013567ffffffffffffffff8111156131ff57600080fd5b61320b8782880161307f565b91505092959194509250565b6000806040838503121561322a57600080fd5b60006132388582860161302b565b925050602061324985828601613040565b9150509250929050565b6000806040838503121561326657600080fd5b60006132748582860161302b565b9250506020613285858286016130d3565b9150509250929050565b6000602082840312156132a157600080fd5b60006132af84828501613040565b91505092915050565b6000602082840312156132ca57600080fd5b60006132d884828501613055565b91505092915050565b6000602082840312156132f357600080fd5b60006133018482850161306a565b91505092915050565b60006020828403121561331c57600080fd5b600082013567ffffffffffffffff81111561333657600080fd5b613342848285016130a9565b91505092915050565b60006020828403121561335d57600080fd5b600061336b848285016130d3565b91505092915050565b6000613380838361384f565b60208301905092915050565b61339581613e8c565b82525050565b60006133a682613d00565b6133b08185613d2e565b93506133bb83613cdb565b8060005b838110156133ec5781516133d38882613374565b97506133de83613d21565b9250506001810190506133bf565b5085935050505092915050565b61340281613e9e565b82525050565b600061341382613d0b565b61341d8185613d3f565b935061342d818560208601613f0f565b613436816140db565b840191505092915050565b600061344c82613d16565b6134568185613d5b565b9350613466818560208601613f0f565b61346f816140db565b840191505092915050565b600061348582613d16565b61348f8185613d6c565b935061349f818560208601613f0f565b80840191505092915050565b600081546134b881613f42565b6134c28186613d6c565b945060018216600081146134dd57600181146134ee57613521565b60ff19831686528186019350613521565b6134f785613ceb565b60005b83811015613519578154818901526001820191506020810190506134fa565b838801955050505b50505092915050565b6000613537602b83613d5b565b9150613542826140ec565b604082019050919050565b600061355a603283613d5b565b91506135658261413b565b604082019050919050565b600061357d602683613d5b565b91506135888261418a565b604082019050919050565b60006135a0602583613d5b565b91506135ab826141d9565b604082019050919050565b60006135c3601c83613d5b565b91506135ce82614228565b602082019050919050565b60006135e6601983613d5b565b91506135f182614251565b602082019050919050565b6000613609602483613d5b565b91506136148261427a565b604082019050919050565b600061362c601983613d5b565b9150613637826142c9565b602082019050919050565b600061364f601683613d5b565b915061365a826142f2565b602082019050919050565b6000613672602c83613d5b565b915061367d8261431b565b604082019050919050565b6000613695603883613d5b565b91506136a08261436a565b604082019050919050565b60006136b8602a83613d5b565b91506136c3826143b9565b604082019050919050565b60006136db602983613d5b565b91506136e682614408565b604082019050919050565b60006136fe602083613d5b565b915061370982614457565b602082019050919050565b6000613721602c83613d5b565b915061372c82614480565b604082019050919050565b6000613744602083613d5b565b915061374f826144cf565b602082019050919050565b6000613767602f83613d5b565b9150613772826144f8565b604082019050919050565b600061378a602183613d5b565b915061379582614547565b604082019050919050565b60006137ad600083613d50565b91506137b882614596565b600082019050919050565b60006137d0603183613d5b565b91506137db82614599565b604082019050919050565b60006137f3601183613d5b565b91506137fe826145e8565b602082019050919050565b6000613816602c83613d5b565b915061382182614611565b604082019050919050565b6000613839602483613d5b565b915061384482614660565b604082019050919050565b61385881613ef6565b82525050565b61386781613ef6565b82525050565b6000613879828661347a565b9150613885828561347a565b915061389182846134ab565b9150819050949350505050565b60006138a9826137a0565b9150819050919050565b60006020820190506138c8600083018461338c565b92915050565b60006080820190506138e3600083018761338c565b6138f0602083018661338c565b6138fd604083018561385e565b818103606083015261390f8184613408565b905095945050505050565b60006020820190508181036000830152613934818461339b565b905092915050565b600060208201905061395160008301846133f9565b92915050565b600060208201905081810360008301526139718184613441565b905092915050565b600060208201905081810360008301526139928161352a565b9050919050565b600060208201905081810360008301526139b28161354d565b9050919050565b600060208201905081810360008301526139d281613570565b9050919050565b600060208201905081810360008301526139f281613593565b9050919050565b60006020820190508181036000830152613a12816135b6565b9050919050565b60006020820190508181036000830152613a32816135d9565b9050919050565b60006020820190508181036000830152613a52816135fc565b9050919050565b60006020820190508181036000830152613a728161361f565b9050919050565b60006020820190508181036000830152613a9281613642565b9050919050565b60006020820190508181036000830152613ab281613665565b9050919050565b60006020820190508181036000830152613ad281613688565b9050919050565b60006020820190508181036000830152613af2816136ab565b9050919050565b60006020820190508181036000830152613b12816136ce565b9050919050565b60006020820190508181036000830152613b32816136f1565b9050919050565b60006020820190508181036000830152613b5281613714565b9050919050565b60006020820190508181036000830152613b7281613737565b9050919050565b60006020820190508181036000830152613b928161375a565b9050919050565b60006020820190508181036000830152613bb28161377d565b9050919050565b60006020820190508181036000830152613bd2816137c3565b9050919050565b60006020820190508181036000830152613bf2816137e6565b9050919050565b60006020820190508181036000830152613c1281613809565b9050919050565b60006020820190508181036000830152613c328161382c565b9050919050565b6000602082019050613c4e600083018461385e565b92915050565b6000613c5e613c6f565b9050613c6a8282613f74565b919050565b6000604051905090565b600067ffffffffffffffff821115613c9457613c936140ac565b5b613c9d826140db565b9050602081019050919050565b600067ffffffffffffffff821115613cc557613cc46140ac565b5b613cce826140db565b9050602081019050919050565b6000819050602082019050919050565b60008190508160005260206000209050919050565b600081519050919050565b600081519050919050565b600081519050919050565b6000602082019050919050565b600082825260208201905092915050565b600082825260208201905092915050565b600081905092915050565b600082825260208201905092915050565b600081905092915050565b6000613d8282613ef6565b9150613d8d83613ef6565b9250827fffffffffffffffffffffffffffffffffffffffffffffffffffffffffffffffff03821115613dc257613dc161401f565b5b828201905092915050565b6000613dd882613ef6565b9150613de383613ef6565b925082613df357613df261404e565b5b828204905092915050565b6000613e0982613ef6565b9150613e1483613ef6565b9250817fffffffffffffffffffffffffffffffffffffffffffffffffffffffffffffffff0483118215151615613e4d57613e4c61401f565b5b828202905092915050565b6000613e6382613ef6565b9150613e6e83613ef6565b925082821015613e8157613e8061401f565b5b828203905092915050565b6000613e9782613ed6565b9050919050565b60008115159050919050565b60007fffffffff0000000000000000000000000000000000000000000000000000000082169050919050565b600073ffffffffffffffffffffffffffffffffffffffff82169050919050565b6000819050919050565b82818337600083830152505050565b60005b83811015613f2d578082015181840152602081019050613f12565b83811115613f3c576000848401525b50505050565b60006002820490506001821680613f5a57607f821691505b60208210811415613f6e57613f6d61407d565b5b50919050565b613f7d826140db565b810181811067ffffffffffffffff82111715613f9c57613f9b6140ac565b5b80604052505050565b6000613fb082613ef6565b91507fffffffffffffffffffffffffffffffffffffffffffffffffffffffffffffffff821415613fe357613fe261401f565b5b600182019050919050565b6000613ff982613ef6565b915061400483613ef6565b9250826140145761401361404e565b5b828206905092915050565b7f4e487b7100000000000000000000000000000000000000000000000000000000600052601160045260246000fd5b7f4e487b7100000000000000000000000000000000000000000000000000000000600052601260045260246000fd5b7f4e487b7100000000000000000000000000000000000000000000000000000000600052602260045260246000fd5b7f4e487b7100000000000000000000000000000000000000000000000000000000600052604160045260246000fd5b6000601f19601f8301169050919050565b7f455243373231456e756d657261626c653a206f776e657220696e646578206f7560008201527f74206f6620626f756e6473000000000000000000000000000000000000000000602082015250565b7f4552433732313a207472616e7366657220746f206e6f6e20455243373231526560008201527f63656976657220696d706c656d656e7465720000000000000000000000000000602082015250565b7f4f776e61626c653a206e6577206f776e657220697320746865207a65726f206160008201527f6464726573730000000000000000000000000000000000000000000000000000602082015250565b7f4552433732313a207472616e736665722066726f6d20696e636f72726563742060008201527f6f776e6572000000000000000000000000000000000000000000000000000000602082015250565b7f4552433732313a20746f6b656e20616c7265616479206d696e74656400000000600082015250565b7f4d696e7420616d6f756e7420646964206e6f74206d6174636800000000000000600082015250565b7f4552433732313a207472616e7366657220746f20746865207a65726f2061646460008201527f7265737300000000000000000000000000000000000000000000000000000000602082015250565b7f4552433732313a20617070726f766520746f2063616c6c657200000000000000600082015250565b7f4d6178696d756e20737570706c79207265616368656400000000000000000000600082015250565b7f4552433732313a206f70657261746f7220717565727920666f72206e6f6e657860008201527f697374656e7420746f6b656e0000000000000000000000000000000000000000602082015250565b7f4552433732313a20617070726f76652063616c6c6572206973206e6f74206f7760008201527f6e6572206e6f7220617070726f76656420666f7220616c6c0000000000000000602082015250565b7f4552433732313a2062616c616e636520717565727920666f7220746865207a6560008201527f726f206164647265737300000000000000000000000000000000000000000000602082015250565b7f4552433732313a206f776e657220717565727920666f72206e6f6e657869737460008201527f656e7420746f6b656e0000000000000000000000000000000000000000000000602082015250565b7f4552433732313a206d696e7420746f20746865207a65726f2061646472657373600082015250565b7f4552433732313a20617070726f76656420717565727920666f72206e6f6e657860008201527f697374656e7420746f6b656e0000000000000000000000000000000000000000602082015250565b7f4f776e61626c653a2063616c6c6572206973206e6f7420746865206f776e6572600082015250565b7f4552433732314d657461646174613a2055524920717565727920666f72206e6f60008201527f6e6578697374656e7420746f6b656e0000000000000000000000000000000000602082015250565b7f4552433732313a20617070726f76616c20746f2063757272656e74206f776e6560008201527f7200000000000000000000000000000000000000000000000000000000000000602082015250565b50565b7f4552433732313a207472616e736665722063616c6c6572206973206e6f74206f60008201527f776e6572206e6f7220617070726f766564000000000000000000000000000000602082015250565b7f4d696e74696e6720697320506175736564000000000000000000000000000000600082015250565b7f455243373231456e756d657261626c653a20676c6f62616c20696e646578206f60008201527f7574206f6620626f756e64730000000000000000000000000000000000000000602082015250565b7f4d696e7420616d6f756e742073686f756c64206265206772656174657220746860008201527f616e203000000000000000000000000000000000000000000000000000000000602082015250565b6146b881613e8c565b81146146c357600080fd5b50565b6146cf81613e9e565b81146146da57600080fd5b50565b6146e681613eaa565b81146146f157600080fd5b50565b6146fd81613ef6565b811461470857600080fd5b5056fea2646970667358221220a12c7423bb06097a8ad6d363406aa8c82cd12c4b5b8e57a99748019ce7bdcbc064736f6c63430008040033",
  "linkReferences": {},
  "deployedLinkReferences": {}
}